{"abi":[{"type":"constructor","inputs":[],"stateMutability":"nonpayable"},{"type":"function","name":"DEFAULT_ADMIN_ROLE","inputs":[],"outputs":[{"name":"","type":"bytes32","internalType":"bytes32"}],"stateMutability":"view"},{"type":"function","name":"INITIATOR_ROLE","inputs":[],"outputs":[{"name":"","type":"bytes32","internalType":"bytes32"}],"stateMutability":"view"},{"type":"function","name":"PAUSER_ROLE","inputs":[],"outputs":[{"name":"","type":"bytes32","internalType":"bytes32"}],"stateMutability":"view"},{"type":"function","name":"SETTLEMENT_BANK_ROLE","inputs":[],"outputs":[{"name":"","type":"bytes32","internalType":"bytes32"}],"stateMutability":"view"},{"type":"function","name":"SETTLEMENT_OPERATOR_ROLE","inputs":[],"outputs":[{"name":"","type":"bytes32","internalType":"bytes32"}],"stateMutability":"view"},{"type":"function","name":"UPGRADER_ROLE","inputs":[],"outputs":[{"name":"","type":"bytes32","internalType":"bytes32"}],"stateMutability":"view"},{"type":"function","name":"UPGRADE_INTERFACE_VERSION","inputs":[],"outputs":[{"name":"","type":"string","internalType":"string"}],"stateMutability":"view"},{"type":"function","name":"addMemberBank","inputs":[{"name":"bank","type":"address","internalType":"address"}],"outputs":[],"stateMutability":"nonpayable"},{"type":"function","name":"closeSettlementWindow","inputs":[{"name":"windowId","type":"uint256","internalType":"uint256"}],"outputs":[],"stateMutability":"nonpayable"},{"type":"function","name":"executeSettlement","inputs":[{"name":"settlementId","type":"bytes32","internalType":"bytes32"}],"outputs":[],"stateMutability":"nonpayable"},{"type":"function","name":"expireSettlement","inputs":[{"name":"settlementId","type":"bytes32","internalType":"bytes32"}],"outputs":[],"stateMutability":"nonpayable"},{"type":"function","name":"getRoleAdmin","inputs":[{"name":"role","type":"bytes32","internalType":"bytes32"}],"outputs":[{"name":"","type":"bytes32","internalType":"bytes32"}],"stateMutability":"view"},{"type":"function","name":"getSettlement","inputs":[{"name":"settlementId","type":"bytes32","internalType":"bytes32"}],"outputs":[{"name":"","type":"tuple","internalType":"struct ICariSettlement.SettlementRequest","components":[{"name":"settlementId","type":"bytes32","internalType":"bytes32"},{"name":"sourceBank","type":"address","internalType":"address"},{"name":"destinationBank","type":"address","internalType":"address"},{"name":"originator","type":"address","internalType":"address"},{"name":"beneficiary","type":"address","internalType":"address"},{"name":"amount","type":"uint256","internalType":"uint256"},{"name":"travelRuleHash","type":"bytes32","internalType":"bytes32"},{"name":"createdAt","type":"uint256","internalType":"uint256"},{"name":"expiresAt","type":"uint256","internalType":"uint256"},{"name":"status","type":"uint8","internalType":"enum ICariSettlement.SettlementStatus"}]}],"stateMutability":"view"},{"type":"function","name":"getSettlementWindow","inputs":[{"name":"windowId","type":"uint256","internalType":"uint256"}],"outputs":[{"name":"","type":"tuple","internalType":"struct ICariSettlement.SettlementWindow","components":[{"name":"windowId","type":"uint256","internalType":"uint256"},{"name":"openedAt","type":"uint256","internalType":"uint256"},{"name":"closesAt","type":"uint256","internalType":"uint256"},{"name":"status","type":"uint8","internalType":"enum ICariSettlement.SettlementWindowStatus"}]}],"stateMutability":"view"},{"type":"function","name":"grantRole","inputs":[{"name":"role","type":"bytes32","internalType":"bytes32"},{"name":"account","type":"address","internalType":"address"}],"outputs":[],"stateMutability":"nonpayable"},{"type":"function","name":"hasRole","inputs":[{"name":"role","type":"bytes32","internalType":"bytes32"},{"name":"account","type":"address","internalType":"address"}],"outputs":[{"name":"","type":"bool","internalType":"bool"}],"stateMutability":"view"},{"type":"function","name":"initialize","inputs":[{"name":"admin","type":"address","internalType":"address"},{"name":"_token","type":"address","internalType":"address"},{"name":"_settlementExpiry","type":"uint256","internalType":"uint256"}],"outputs":[],"stateMutability":"nonpayable"},{"type":"function","name":"initiateSettlement","inputs":[{"name":"destinationBank","type":"address","internalType":"address"},{"name":"originator","type":"address","internalType":"address"},{"name":"beneficiary","type":"address","internalType":"address"},{"name":"amount","type":"uint256","internalType":"uint256"},{"name":"travelRuleHash","type":"bytes32","internalType":"bytes32"}],"outputs":[{"name":"settlementId","type":"bytes32","internalType":"bytes32"}],"stateMutability":"nonpayable"},{"type":"function","name":"isMemberBank","inputs":[{"name":"","type":"address","internalType":"address"}],"outputs":[{"name":"","type":"bool","internalType":"bool"}],"stateMutability":"view"},{"type":"function","name":"netSettle","inputs":[{"name":"windowId","type":"uint256","internalType":"uint256"},{"name":"entries","type":"tuple[]","internalType":"struct ICariSettlement.NetSettlementEntry[]","components":[{"name":"bank","type":"address","internalType":"address"},{"name":"netAmount","type":"int256","internalType":"int256"}]}],"outputs":[],"stateMutability":"nonpayable"},{"type":"function","name":"openSettlementWindow","inputs":[{"name":"closesAt","type":"uint256","internalType":"uint256"}],"outputs":[{"name":"windowId","type":"uint256","internalType":"uint256"}],"stateMutability":"nonpayable"},{"type":"function","name":"pause","inputs":[],"outputs":[],"stateMutability":"nonpayable"},{"type":"function","name":"paused","inputs":[],"outputs":[{"name":"","type":"bool","internalType":"bool"}],"stateMutability":"view"},{"type":"function","name":"proxiableUUID","inputs":[],"outputs":[{"name":"","type":"bytes32","internalType":"bytes32"}],"stateMutability":"view"},{"type":"function","name":"removeMemberBank","inputs":[{"name":"bank","type":"address","internalType":"address"}],"outputs":[],"stateMutability":"nonpayable"},{"type":"function","name":"renounceRole","inputs":[{"name":"role","type":"bytes32","internalType":"bytes32"},{"name":"callerConfirmation","type":"address","internalType":"address"}],"outputs":[],"stateMutability":"nonpayable"},{"type":"function","name":"revertSettlement","inputs":[{"name":"settlementId","type":"bytes32","internalType":"bytes32"},{"name":"reason","type":"string","internalType":"string"}],"outputs":[],"stateMutability":"nonpayable"},{"type":"function","name":"revokeRole","inputs":[{"name":"role","type":"bytes32","internalType":"bytes32"},{"name":"account","type":"address","internalType":"address"}],"outputs":[],"stateMutability":"nonpayable"},{"type":"function","name":"setSettlementExpiry","inputs":[{"name":"newExpiry","type":"uint256","internalType":"uint256"}],"outputs":[],"stateMutability":"nonpayable"},{"type":"function","name":"settlementExpiry","inputs":[],"outputs":[{"name":"","type":"uint256","internalType":"uint256"}],"stateMutability":"view"},{"type":"function","name":"supportsInterface","inputs":[{"name":"interfaceId","type":"bytes4","internalType":"bytes4"}],"outputs":[{"name":"","type":"bool","internalType":"bool"}],"stateMutability":"view"},{"type":"function","name":"token","inputs":[],"outputs":[{"name":"","type":"address","internalType":"contract ITokenizedDeposit"}],"stateMutability":"view"},{"type":"function","name":"unpause","inputs":[],"outputs":[],"stateMutability":"nonpayable"},{"type":"function","name":"upgradeToAndCall","inputs":[{"name":"newImplementation","type":"address","internalType":"address"},{"name":"data","type":"bytes","internalType":"bytes"}],"outputs":[],"stateMutability":"payable"},{"type":"event","name":"Initialized","inputs":[{"name":"version","type":"uint64","indexed":false,"internalType":"uint64"}],"anonymous":false},{"type":"event","name":"MemberBankAdded","inputs":[{"name":"bank","type":"address","indexed":true,"internalType":"address"}],"anonymous":false},{"type":"event","name":"MemberBankRemoved","inputs":[{"name":"bank","type":"address","indexed":true,"internalType":"address"}],"anonymous":false},{"type":"event","name":"NetSettlementExecuted","inputs":[{"name":"windowId","type":"uint256","indexed":true,"internalType":"uint256"},{"name":"settledAt","type":"uint256","indexed":false,"internalType":"uint256"},{"name":"entryCount","type":"uint256","indexed":false,"internalType":"uint256"}],"anonymous":false},{"type":"event","name":"Paused","inputs":[{"name":"account","type":"address","indexed":false,"internalType":"address"}],"anonymous":false},{"type":"event","name":"RoleAdminChanged","inputs":[{"name":"role","type":"bytes32","indexed":true,"internalType":"bytes32"},{"name":"previousAdminRole","type":"bytes32","indexed":true,"internalType":"bytes32"},{"name":"newAdminRole","type":"bytes32","indexed":true,"internalType":"bytes32"}],"anonymous":false},{"type":"event","name":"RoleGranted","inputs":[{"name":"role","type":"bytes32","indexed":true,"internalType":"bytes32"},{"name":"account","type":"address","indexed":true,"internalType":"address"},{"name":"sender","type":"address","indexed":true,"internalType":"address"}],"anonymous":false},{"type":"event","name":"RoleRevoked","inputs":[{"name":"role","type":"bytes32","indexed":true,"internalType":"bytes32"},{"name":"account","type":"address","indexed":true,"internalType":"address"},{"name":"sender","type":"address","indexed":true,"internalType":"address"}],"anonymous":false},{"type":"event","name":"SettlementExecuted","inputs":[{"name":"settlementId","type":"bytes32","indexed":true,"internalType":"bytes32"},{"name":"executedAt","type":"uint256","indexed":false,"internalType":"uint256"}],"anonymous":false},{"type":"event","name":"SettlementExpired","inputs":[{"name":"settlementId","type":"bytes32","indexed":true,"internalType":"bytes32"}],"anonymous":false},{"type":"event","name":"SettlementExpiryUpdated","inputs":[{"name":"oldExpiry","type":"uint256","indexed":false,"internalType":"uint256"},{"name":"newExpiry","type":"uint256","indexed":false,"internalType":"uint256"}],"anonymous":false},{"type":"event","name":"SettlementInitiated","inputs":[{"name":"settlementId","type":"bytes32","indexed":true,"internalType":"bytes32"},{"name":"sourceBank","type":"address","indexed":true,"internalType":"address"},{"name":"destinationBank","type":"address","indexed":true,"internalType":"address"},{"name":"originator","type":"address","indexed":false,"internalType":"address"},{"name":"beneficiary","type":"address","indexed":false,"internalType":"address"},{"name":"amount","type":"uint256","indexed":false,"internalType":"uint256"},{"name":"travelRuleHash","type":"bytes32","indexed":false,"internalType":"bytes32"}],"anonymous":false},{"type":"event","name":"SettlementReverted","inputs":[{"name":"settlementId","type":"bytes32","indexed":true,"internalType":"bytes32"},{"name":"reason","type":"string","indexed":false,"internalType":"string"}],"anonymous":false},{"type":"event","name":"SettlementWindowClosed","inputs":[{"name":"windowId","type":"uint256","indexed":true,"internalType":"uint256"},{"name":"closedAt","type":"uint256","indexed":false,"internalType":"uint256"}],"anonymous":false},{"type":"event","name":"SettlementWindowOpened","inputs":[{"name":"windowId","type":"uint256","indexed":true,"internalType":"uint256"},{"name":"openedAt","type":"uint256","indexed":false,"internalType":"uint256"},{"name":"closesAt","type":"uint256","indexed":false,"internalType":"uint256"}],"anonymous":false},{"type":"event","name":"Unpaused","inputs":[{"name":"account","type":"address","indexed":false,"internalType":"address"}],"anonymous":false},{"type":"event","name":"Upgraded","inputs":[{"name":"implementation","type":"address","indexed":true,"internalType":"address"}],"anonymous":false},{"type":"error","name":"AccessControlBadConfirmation","inputs":[]},{"type":"error","name":"AccessControlUnauthorizedAccount","inputs":[{"name":"account","type":"address","internalType":"address"},{"name":"neededRole","type":"bytes32","internalType":"bytes32"}]},{"type":"error","name":"AddressEmptyCode","inputs":[{"name":"target","type":"address","internalType":"address"}]},{"type":"error","name":"ERC1967InvalidImplementation","inputs":[{"name":"implementation","type":"address","internalType":"address"}]},{"type":"error","name":"ERC1967NonPayable","inputs":[]},{"type":"error","name":"EnforcedPause","inputs":[]},{"type":"error","name":"ExpectedPause","inputs":[]},{"type":"error","name":"FailedCall","inputs":[]},{"type":"error","name":"InvalidCloseTime","inputs":[{"name":"closesAt","type":"uint256","internalType":"uint256"}]},{"type":"error","name":"InvalidExpiry","inputs":[]},{"type":"error","name":"InvalidInitialization","inputs":[]},{"type":"error","name":"NetSettlementImbalanced","inputs":[]},{"type":"error","name":"NotInitializing","inputs":[]},{"type":"error","name":"NotMemberBank","inputs":[{"name":"bank","type":"address","internalType":"address"}]},{"type":"error","name":"ReentrancyGuardReentrantCall","inputs":[]},{"type":"error","name":"SettlementAlreadyExpired","inputs":[{"name":"settlementId","type":"bytes32","internalType":"bytes32"}]},{"type":"error","name":"SettlementNotExpired","inputs":[{"name":"settlementId","type":"bytes32","internalType":"bytes32"}]},{"type":"error","name":"SettlementNotFound","inputs":[{"name":"settlementId","type":"bytes32","internalType":"bytes32"}]},{"type":"error","name":"SettlementNotPending","inputs":[{"name":"settlementId","type":"bytes32","internalType":"bytes32"},{"name":"status","type":"uint8","internalType":"enum ICariSettlement.SettlementStatus"}]},{"type":"error","name":"UUPSUnauthorizedCallContext","inputs":[]},{"type":"error","name":"UUPSUnsupportedProxiableUUID","inputs":[{"name":"slot","type":"bytes32","internalType":"bytes32"}]},{"type":"error","name":"WindowAlreadyClosed","inputs":[{"name":"windowId","type":"uint256","internalType":"uint256"}]},{"type":"error","name":"WindowNotClosed","inputs":[{"name":"windowId","type":"uint256","internalType":"uint256"}]},{"type":"error","name":"WindowNotFound","inputs":[{"name":"windowId","type":"uint256","internalType":"uint256"}]},{"type":"error","name":"WindowNotOpen","inputs":[{"name":"windowId","type":"uint256","internalType":"uint256"}]},{"type":"error","name":"ZeroAddress","inputs":[]},{"type":"error","name":"ZeroAmount","inputs":[]}],"bytecode":{"object":"0x60a060405230608052348015610013575f80fd5b5060017f9b779b17422d0df92223018b32b4d1fa46e071723d6817e2486d003becc55f0055610040610045565b6100f7565b7ff0c57e16840df040f15088dc2f81fe391c3923bec73e23a9662efc9c229c6a00805468010000000000000000900460ff16156100955760405163f92ee8a960e01b815260040160405180910390fd5b80546001600160401b03908116146100f45780546001600160401b0319166001600160401b0390811782556040519081527fc7f505b2f371ae2175ee4913f4499e1f2633a7b5936321eed1cdaeb6115181d29060200160405180910390a15b50565b6080516126db61011d5f395f8181611bdf01528181611c080152611d6901526126db5ff3fe6080604052600436106101f1575f3560e01c80635c975abb11610108578063a217fddf1161009d578063c3e6ace01161006d578063c3e6ace0146105c1578063d547741f146105ed578063e63ab1e91461060c578063f72c0d8b1461062c578063fc0c546a1461065f575f80fd5b8063a217fddf14610532578063a66340fb14610545578063ac05ad3914610565578063ad3cb1cc14610584575f80fd5b806377b5515c116100d857806377b5515c146104b75780638456cb59146104cc57806389674f9f146104e057806391d1485414610513575f80fd5b80635c975abb146104375780635d0f20381461045a5780636e6a92761461047957806374168db614610498575f80fd5b8063248a9ca3116101895780633f4ba83a116101595780633f4ba83a146103be578063412d3906146103d25780634f1ef286146103f157806352d1902d146104045780635b8c670d14610418575f80fd5b8063248a9ca3146103425780632f2ff15d1461036157806336568abe146103805780633d0515261461039f575f80fd5b806317e233fe116101c457806317e233fe146102885780631990e979146102b45780631abecfd9146102f5578063243cf21414610314575f80fd5b806301ffc9a7146101f55780630bda191e1461022957806311f2eb2b1461024a5780631794bb3c14610269575b5f80fd5b348015610200575f80fd5b5061021461020f36600461209f565b610695565b60405190151581526020015b60405180910390f35b348015610234575f80fd5b506102486102433660046120cd565b6106cb565b005b348015610255575f80fd5b506102486102643660046120cd565b61087b565b348015610274575f80fd5b506102486102833660046120ff565b610955565b348015610293575f80fd5b506102a76102a23660046120cd565b610b61565b604051610220919061214d565b3480156102bf575f80fd5b506102e77f6b8b15f1c11543d8280deaa7c24d12fffba6a357e4428e8c43e4234790186bff81565b604051908152602001610220565b348015610300575f80fd5b5061024861030f3660046120cd565b610bdf565b34801561031f575f80fd5b5061021461032e36600461218e565b60066020525f908152604090205460ff1681565b34801561034d575f80fd5b506102e761035c3660046120cd565b610d4e565b34801561036c575f80fd5b5061024861037b3660046121a7565b610d6e565b34801561038b575f80fd5b5061024861039a3660046121a7565b610d90565b3480156103aa575f80fd5b506102486103b93660046120cd565b610dc8565b3480156103c9575f80fd5b50610248610e37565b3480156103dd575f80fd5b506102e76103ec3660046120cd565b610e56565b6102486103ff3660046121e5565b610f62565b34801561040f575f80fd5b506102e7610f7d565b348015610423575f80fd5b5061024861043236600461218e565b610f98565b348015610442575f80fd5b505f805160206126468339815191525460ff16610214565b348015610465575f80fd5b506102486104743660046122a9565b610feb565b348015610484575f80fd5b50610248610493366004612320565b611168565b3480156104a3575f80fd5b506102e76104b2366004612389565b61146e565b3480156104c2575f80fd5b506102e760015481565b3480156104d7575f80fd5b506102486117d2565b3480156104eb575f80fd5b506102e77fe5f3d29fbf8cd4b379b5a8ec1437261892bf01e7d129556690f84cf7a11d2c4d81565b34801561051e575f80fd5b5061021461052d3660046121a7565b6117f1565b34801561053d575f80fd5b506102e75f81565b348015610550575f80fd5b506102e75f8051602061268683398151915281565b348015610570575f80fd5b5061024861057f36600461218e565b611827565b34801561058f575f80fd5b506105b4604051806040016040528060058152602001640352e302e360dc1b81525081565b60405161022091906123da565b3480156105cc575f80fd5b506105e06105db3660046120cd565b6118a4565b6040516102209190612423565b3480156105f8575f80fd5b506102486106073660046121a7565b6119b1565b348015610617575f80fd5b506102e75f8051602061260683398151915281565b348015610637575f80fd5b506102e77f189ab7a9244df0848122154315af71fe140f3db0fe014031783b0946b8c9d2e381565b34801561066a575f80fd5b505f5461067d906001600160a01b031681565b6040516001600160a01b039091168152602001610220565b5f6001600160e01b03198216637965db0b60e01b14806106c557506301ffc9a760e01b6001600160e01b03198316145b92915050565b7fe5f3d29fbf8cd4b379b5a8ec1437261892bf01e7d129556690f84cf7a11d2c4d6106f5816119cd565b6106fd6119d7565b610705611a09565b5f828152600260205260408120600781015490910361073f57604051630846684960e41b8152600481018490526024015b60405180910390fd5b5f600982015460ff16600381111561075957610759612139565b1461078457600981015460405163270bc09f60e11b815261073691859160ff909116906004016124d7565b80600801544211156107ac5760405163c7003bdd60e01b815260048101849052602401610736565b60098101805460ff191660011790555f54600480830154600584015460405163da98725960e01b81526001600160a01b039485169463da987259946107f9949190911692918991016124eb565b5f604051808303815f87803b158015610810575f80fd5b505af1158015610822573d5f803e3d5ffd5b50505050827fbc9fdcf195877c08c4f5f4a9a21cd1a885b0ee9851c14e050abd6679f80fcdc34260405161085891815260200190565b60405180910390a25061087760015f8051602061266683398151915255565b5050565b5f80516020612686833981519152610892816119cd565b61089a6119d7565b5f82815260056020526040812060018101549091036108cf57604051630846684960e41b815260048101849052602401610736565b5f600382015460ff1660028111156108e9576108e9612139565b1461090c5760405163270bc09f60e11b81526107369084906001906004016124d7565b60038101805460ff1916600117905560405142815283907f88b59161fdd136463f192dafb0e7f284989534fa97b88fed4022899922cec07b9060200160405180910390a2505050565b5f61095e611a24565b805490915060ff600160401b820416159067ffffffffffffffff165f811580156109855750825b90505f8267ffffffffffffffff1660011480156109a15750303b155b9050811580156109af575080155b156109cd5760405163f92ee8a960e01b815260040160405180910390fd5b845467ffffffffffffffff1916600117855583156109f757845460ff60401b1916600160401b1785555b6001600160a01b0388161580610a1457506001600160a01b038716155b15610a325760405163d92e233d60e01b815260040160405180910390fd5b855f03610a515760405162d36c8560e81b815260040160405180910390fd5b610a59611a4c565b610a61611a4c565b610a6b5f89611a54565b50610a967f189ab7a9244df0848122154315af71fe140f3db0fe014031783b0946b8c9d2e389611a54565b50610aae5f8051602061260683398151915289611a54565b50610ad97f6b8b15f1c11543d8280deaa7c24d12fffba6a357e4428e8c43e4234790186bff89611a54565b50610af15f8051602061268683398151915289611a54565b505f80546001600160a01b0319166001600160a01b03891617905560018690558315610b5757845460ff60401b19168555604051600181527fc7f505b2f371ae2175ee4913f4499e1f2633a7b5936321eed1cdaeb6115181d29060200160405180910390a15b5050505050505050565b610b6961206b565b60055f8381526020019081526020015f206040518060800160405290815f82015481526020016001820154815260200160028201548152602001600382015f9054906101000a900460ff166002811115610bc557610bc5612139565b6002811115610bd657610bd6612139565b90525092915050565b610be76119d7565b610bef611a09565b5f8181526002602052604081206007810154909103610c2457604051630846684960e41b815260048101839052602401610736565b5f600982015460ff166003811115610c3e57610c3e612139565b14610c6957600981015460405163270bc09f60e11b815261073691849160ff909116906004016124d7565b80600801544211610c9057604051631dbca19760e11b815260048101839052602401610736565b60098101805460ff191660039081179091555f5490820154600583015460405163cfa5cc1d60e01b81526001600160a01b039384169363cfa5cc1d93610cdd9391169187906004016124eb565b5f604051808303815f87803b158015610cf4575f80fd5b505af1158015610d06573d5f803e3d5ffd5b50506040518492507f6fd49aea468143acb5864746d741f989f321e5fb585aea4241c38e15f01f060a91505f90a250610d4b60015f8051602061266683398151915255565b50565b5f9081525f80516020612626833981519152602052604090206001015490565b610d7782610d4e565b610d80816119cd565b610d8a8383611a54565b50505050565b6001600160a01b0381163314610db95760405163334bd91960e11b815260040160405180910390fd5b610dc38282611afc565b505050565b5f610dd2816119cd565b815f03610df15760405162d36c8560e81b815260040160405180910390fd5b600180549083905560408051828152602081018590527f46212d05d27f6d0de3d63cbb86d790f4965c24aab25d68c08d56b82bda01dc87910160405180910390a1505050565b5f80516020612606833981519152610e4e816119cd565b610d4b611b75565b5f5f80516020612686833981519152610e6e816119cd565b610e766119d7565b428311610e955760405162d36c8560e81b815260040160405180910390fd5b60048054905f610ea483612520565b90915550604080516080810182528281524260208083019182528284018881525f60608501818152878252600590935294909420835181559151600180840191909155935160028084019190915590516003830180549698509395929490939260ff1916918490811115610f1a57610f1a612139565b02179055505060408051428152602081018690528492507fa250f7a74d359891ef82283073ba5523d673d91707f405aad37283b629ba8c22910160405180910390a250919050565b610f6a611bd4565b610f7382611c78565b6108778282611ca2565b5f610f86611d5e565b505f805160206125e683398151915290565b5f610fa2816119cd565b6001600160a01b0382165f81815260066020526040808220805460ff19169055517fdd6a5658b189541937945c5f37ba2beebb24492e1bc1ec879672fa56ef02abdd9190a25050565b7fe5f3d29fbf8cd4b379b5a8ec1437261892bf01e7d129556690f84cf7a11d2c4d611015816119cd565b61101d6119d7565b611025611a09565b5f848152600260205260408120600781015490910361105a57604051630846684960e41b815260048101869052602401610736565b5f600982015460ff16600381111561107457611074612139565b1461109f57600981015460405163270bc09f60e11b815261073691879160ff909116906004016124d7565b60098101805460ff191660021790555f546003820154600583015460405163cfa5cc1d60e01b81526001600160a01b039384169363cfa5cc1d936110ea939116918a906004016124eb565b5f604051808303815f87803b158015611101575f80fd5b505af1158015611113573d5f803e3d5ffd5b50505050847f9cdda2d3e1d511b32a77a48a72a10ed633e89f975d2e1169a742061e1bc6e5c08585604051611149929190612538565b60405180910390a250610d8a60015f8051602061266683398151915255565b5f8051602061268683398151915261117f816119cd565b6111876119d7565b61118f611a09565b5f84815260056020526040812060018101549091036111c457604051630846684960e41b815260048101869052602401610736565b6001600382015460ff1660028111156111df576111df612139565b146112015760405163270bc09f60e11b81526107369086905f906004016124d7565b5f805b8481101561123d5785858281811061121e5761121e612566565b9050604002016020013582611233919061257a565b9150600101611204565b50801561125d5760405163d0d2f41960e01b815260040160405180910390fd5b5f5b8481101561140b575f86868381811061127a5761127a612566565b905060400201602001351315611331575f546001600160a01b031663da9872598787848181106112ac576112ac612566565b6112c2926020604090920201908101915061218e565b8888858181106112d4576112d4612566565b905060400201602001358a5f1b6040518463ffffffff1660e01b81526004016112ff939291906124eb565b5f604051808303815f87803b158015611316575f80fd5b505af1158015611328573d5f803e3d5ffd5b50505050611403565b5f86868381811061134457611344612566565b905060400201602001351215611403575f546001600160a01b031663ee20982487878481811061137657611376612566565b61138c926020604090920201908101915061218e565b88888581811061139e5761139e612566565b905060400201602001356113b1906125a1565b6040516001600160e01b031960e085901b1681526113d59291908c906004016124eb565b5f604051808303815f87803b1580156113ec575f80fd5b505af11580156113fe573d5f803e3d5ffd5b505050505b60010161125f565b5060038201805460ff19166002179055604080514281526020810186905287917fafe02fe54c4ebb8e4afe3e26a178c3b577acff1b3491635119bfe518641cfb9e910160405180910390a25050610d8a60015f8051602061266683398151915255565b5f7f6b8b15f1c11543d8280deaa7c24d12fffba6a357e4428e8c43e4234790186bff611499816119cd565b6114a16119d7565b6114a9611a09565b6001600160a01b0387165f9081526006602052604090205460ff166114ec5760405163c35e3e8f60e01b81526001600160a01b0388166004820152602401610736565b6001600160a01b038616158061150957506001600160a01b038516155b156115275760405163d92e233d60e01b815260040160405180910390fd5b835f0361154757604051631f2a200560e01b815260040160405180910390fd5b6003805446913091905f61155a83612520565b919050556040516020016115939392919092835260609190911b6bffffffffffffffffffffffff19166020830152603482015260540190565b60408051601f198184030181529082905280516020909101205f54633b88260960e21b83529093506001600160a01b03169063ee209824906115dd908990889087906004016124eb565b5f604051808303815f87803b1580156115f4575f80fd5b505af1158015611606573d5f803e3d5ffd5b50505050604051806101400160405280838152602001306001600160a01b03168152602001886001600160a01b03168152602001876001600160a01b03168152602001866001600160a01b031681526020018581526020018481526020014281526020016001544261167891906125bb565b81526020015f90525f838152600260208181526040928390208451815590840151600180830180546001600160a01b03199081166001600160a01b0394851617909155948601519383018054861694831694909417909355606085015160038084018054871692841692909217909155608086015160048401805490961692169190911790935560a0840151600582015560c0840151600682015560e08401516007820155610100840151600882015561012084015160098201805492949193909260ff191691849081111561175057611750612139565b021790555050604080516001600160a01b0389811682528881166020830152918101879052606081018690529089169150309084907fdb57f9213a256ca9ae03678ab27a4bb7b209c3b0410aab15a3dbad1eae2443fb9060800160405180910390a46117c860015f8051602061266683398151915255565b5095945050505050565b5f805160206126068339815191526117e9816119cd565b610d4b611da7565b5f9182525f80516020612626833981519152602090815260408084206001600160a01b0393909316845291905290205460ff1690565b5f611831816119cd565b6001600160a01b0382166118585760405163d92e233d60e01b815260040160405180910390fd5b6001600160a01b0382165f81815260066020526040808220805460ff19166001179055517f17b9c9918bb3dae9b2ed6dceaf73963dd94d1089186d278fe731f6d9a7ef10be9190a25050565b6118f860408051610140810182525f80825260208201819052918101829052606081018290526080810182905260a0810182905260c0810182905260e0810182905261010081018290529061012082015290565b5f828152600260208181526040928390208351610140810185528154815260018201546001600160a01b0390811693820193909352928101548216938301939093526003808401548216606084015260048401549091166080830152600583015460a0830152600683015460c0830152600783015460e08301526008830154610100830152600983015491929161012084019160ff909116908111156119a0576119a0612139565b6003811115610bd657610bd6612139565b6119ba82610d4e565b6119c3816119cd565b610d8a8383611afc565b610d4b8133611def565b5f805160206126468339815191525460ff1615611a075760405163d93c066560e01b815260040160405180910390fd5b565b611a11611e28565b60025f8051602061266683398151915255565b5f807ff0c57e16840df040f15088dc2f81fe391c3923bec73e23a9662efc9c229c6a006106c5565b611a07611e57565b5f5f80516020612626833981519152611a6d84846117f1565b611aec575f848152602082815260408083206001600160a01b03871684529091529020805460ff19166001179055611aa23390565b6001600160a01b0316836001600160a01b0316857f2f8788117e7eff1d82e926ec794901d17c78024a50270940304540a733656f0d60405160405180910390a460019150506106c5565b5f9150506106c5565b5092915050565b5f5f80516020612626833981519152611b1584846117f1565b15611aec575f848152602082815260408083206001600160a01b0387168085529252808320805460ff1916905551339287917ff6391f5c32d9c69d2a47ea670b442974b53935d1edc7fd64eb21e047a839171b9190a460019150506106c5565b611b7d611e7c565b5f80516020612646833981519152805460ff191681557f5db9ee0a495bf2e6ff9c91a7834c1ba4fdd244a5e8aa4e537bd38aeae4b073aa335b6040516001600160a01b03909116815260200160405180910390a150565b306001600160a01b037f0000000000000000000000000000000000000000000000000000000000000000161480611c5a57507f00000000000000000000000000000000000000000000000000000000000000006001600160a01b0316611c4e5f805160206125e6833981519152546001600160a01b031690565b6001600160a01b031614155b15611a075760405163703e46dd60e11b815260040160405180910390fd5b7f189ab7a9244df0848122154315af71fe140f3db0fe014031783b0946b8c9d2e3610877816119cd565b816001600160a01b03166352d1902d6040518163ffffffff1660e01b8152600401602060405180830381865afa925050508015611cfc575060408051601f3d908101601f19168201909252611cf9918101906125ce565b60015b611d2457604051634c9c8ce360e01b81526001600160a01b0383166004820152602401610736565b5f805160206125e68339815191528114611d5457604051632a87526960e21b815260048101829052602401610736565b610dc38383611eab565b306001600160a01b037f00000000000000000000000000000000000000000000000000000000000000001614611a075760405163703e46dd60e11b815260040160405180910390fd5b611daf6119d7565b5f80516020612646833981519152805460ff191660011781557f62e78cea01bee320cd4e420270b5ea74000d11b0c9f74754ebdbfc544b05a25833611bb6565b611df982826117f1565b6108775760405163e2517d3f60e01b81526001600160a01b038216600482015260248101839052604401610736565b5f8051602061266683398151915254600203611a0757604051633ee5aeb560e01b815260040160405180910390fd5b611e5f611f00565b611a0757604051631afcd79f60e31b815260040160405180910390fd5b5f805160206126468339815191525460ff16611a0757604051638dfc202b60e01b815260040160405180910390fd5b611eb482611f19565b6040516001600160a01b038316907fbc7cd75a20ee27fd9adebab32041f755214dbc6bffa90cc0225b39da2e5c2d3b905f90a2805115611ef857610dc38282611f7c565b610877612015565b5f611f09611a24565b54600160401b900460ff16919050565b806001600160a01b03163b5f03611f4e57604051634c9c8ce360e01b81526001600160a01b0382166004820152602401610736565b5f805160206125e683398151915280546001600160a01b0319166001600160a01b0392909216919091179055565b60605f611f898484612034565b9050808015611faa57505f3d1180611faa57505f846001600160a01b03163b115b15611fbf57611fb7612047565b9150506106c5565b8015611fe957604051639996b31560e01b81526001600160a01b0385166004820152602401610736565b3d15611ffc57611ff7612060565b611af5565b60405163d6bda27560e01b815260040160405180910390fd5b3415611a075760405163b398979f60e01b815260040160405180910390fd5b5f805f835160208501865af49392505050565b6040513d81523d5f602083013e3d602001810160405290565b6040513d5f823e3d81fd5b60405180608001604052805f81526020015f81526020015f81526020015f600281111561209a5761209a612139565b905290565b5f602082840312156120af575f80fd5b81356001600160e01b0319811681146120c6575f80fd5b9392505050565b5f602082840312156120dd575f80fd5b5035919050565b80356001600160a01b03811681146120fa575f80fd5b919050565b5f805f60608486031215612111575f80fd5b61211a846120e4565b9250612128602085016120e4565b929592945050506040919091013590565b634e487b7160e01b5f52602160045260245ffd5b5f60808201905082518252602083015160208301526040830151604083015260608301516003811061218157612181612139565b8060608401525092915050565b5f6020828403121561219e575f80fd5b6120c6826120e4565b5f80604083850312156121b8575f80fd5b823591506121c8602084016120e4565b90509250929050565b634e487b7160e01b5f52604160045260245ffd5b5f80604083850312156121f6575f80fd5b6121ff836120e4565b9150602083013567ffffffffffffffff81111561221a575f80fd5b8301601f8101851361222a575f80fd5b803567ffffffffffffffff811115612244576122446121d1565b604051601f8201601f19908116603f0116810167ffffffffffffffff81118282101715612273576122736121d1565b60405281815282820160200187101561228a575f80fd5b816020840160208301375f602083830101528093505050509250929050565b5f805f604084860312156122bb575f80fd5b83359250602084013567ffffffffffffffff8111156122d8575f80fd5b8401601f810186136122e8575f80fd5b803567ffffffffffffffff8111156122fe575f80fd5b86602082840101111561230f575f80fd5b939660209190910195509293505050565b5f805f60408486031215612332575f80fd5b83359250602084013567ffffffffffffffff81111561234f575f80fd5b8401601f8101861361235f575f80fd5b803567ffffffffffffffff811115612375575f80fd5b8660208260061b840101111561230f575f80fd5b5f805f805f60a0868803121561239d575f80fd5b6123a6866120e4565b94506123b4602087016120e4565b93506123c2604087016120e4565b94979396509394606081013594506080013592915050565b602081525f82518060208401528060208501604085015e5f604082850101526040601f19601f83011684010191505092915050565b6004811061241f5761241f612139565b9052565b81518152602080830151610140830191612447908401826001600160a01b03169052565b50604083015161246260408401826001600160a01b03169052565b50606083015161247d60608401826001600160a01b03169052565b50608083015161249860808401826001600160a01b03169052565b5060a083015160a083015260c083015160c083015260e083015160e0830152610100830151610100830152610120830151611af561012084018261240f565b828152604081016120c6602083018461240f565b6001600160a01b039390931683526020830191909152604082015260600190565b634e487b7160e01b5f52601160045260245ffd5b5f600182016125315761253161250c565b5060010190565b60208152816020820152818360408301375f818301604090810191909152601f909201601f19160101919050565b634e487b7160e01b5f52603260045260245ffd5b8082018281125f8312801582168215821617156125995761259961250c565b505092915050565b5f600160ff1b82016125b5576125b561250c565b505f0390565b808201808211156106c5576106c561250c565b5f602082840312156125de575f80fd5b505191905056fe360894a13ba1a3210667c828492db98dca3e2076cc3735a920a3ca505d382bbc65d7a28e3265b37a6474929f336521b332c1681b933f6cb9f3376673440d862a02dd7bc7dec4dceedda775e58dd541e08a116c6c53815c0bd028192f7b626800cd5ed15c6e187e77e9aee88184c21f4f2182ab5827cb3b7e07fbedcd63f033009b779b17422d0df92223018b32b4d1fa46e071723d6817e2486d003becc55f0021bd30b9ad83599a55b59971c6d2d36f91e1492962a52bcdaf869c7eac49b6e1a26469706673582212203edd1027723400c1a45cb3fa2bf6ea31a942b6f5174ed164a26fe6c32103f54c64736f6c634300081a0033","linkReferences":{}},"methodIdentifiers":{"DEFAULT_ADMIN_ROLE()":"a217fddf","INITIATOR_ROLE()":"1990e979","PAUSER_ROLE()":"e63ab1e9","SETTLEMENT_BANK_ROLE()":"a66340fb","SETTLEMENT_OPERATOR_ROLE()":"89674f9f","UPGRADER_ROLE()":"f72c0d8b","UPGRADE_INTERFACE_VERSION()":"ad3cb1cc","addMemberBank(address)":"ac05ad39","closeSettlementWindow(uint256)":"11f2eb2b","executeSettlement(bytes32)":"0bda191e","expireSettlement(bytes32)":"1abecfd9","getRoleAdmin(bytes32)":"248a9ca3","getSettlement(bytes32)":"c3e6ace0","getSettlementWindow(uint256)":"17e233fe","grantRole(bytes32,address)":"2f2ff15d","hasRole(bytes32,address)":"91d14854","initialize(address,address,uint256)":"1794bb3c","initiateSettlement(address,address,address,uint256,bytes32)":"74168db6","isMemberBank(address)":"243cf214","netSettle(uint256,(address,int256)[])":"6e6a9276","openSettlementWindow(uint256)":"412d3906","pause()":"8456cb59","paused()":"5c975abb","proxiableUUID()":"52d1902d","removeMemberBank(address)":"5b8c670d","renounceRole(bytes32,address)":"36568abe","revertSettlement(bytes32,string)":"5d0f2038","revokeRole(bytes32,address)":"d547741f","setSettlementExpiry(uint256)":"3d051526","settlementExpiry()":"77b5515c","supportsInterface(bytes4)":"01ffc9a7","token()":"fc0c546a","unpause()":"3f4ba83a","upgradeToAndCall(address,bytes)":"4f1ef286"},"id":1}