{"abi":[{"type":"constructor","inputs":[],"stateMutability":"nonpayable"},{"type":"function","name":"BURNER_ROLE","inputs":[],"outputs":[{"name":"","type":"bytes32","internalType":"bytes32"}],"stateMutability":"view"},{"type":"function","name":"COMPLIANCE_ROLE","inputs":[],"outputs":[{"name":"","type":"bytes32","internalType":"bytes32"}],"stateMutability":"view"},{"type":"function","name":"DEFAULT_ADMIN_ROLE","inputs":[],"outputs":[{"name":"","type":"bytes32","internalType":"bytes32"}],"stateMutability":"view"},{"type":"function","name":"MINTER_ROLE","inputs":[],"outputs":[{"name":"","type":"bytes32","internalType":"bytes32"}],"stateMutability":"view"},{"type":"function","name":"PAUSER_ROLE","inputs":[],"outputs":[{"name":"","type":"bytes32","internalType":"bytes32"}],"stateMutability":"view"},{"type":"function","name":"UPGRADER_ROLE","inputs":[],"outputs":[{"name":"","type":"bytes32","internalType":"bytes32"}],"stateMutability":"view"},{"type":"function","name":"UPGRADE_INTERFACE_VERSION","inputs":[],"outputs":[{"name":"","type":"string","internalType":"string"}],"stateMutability":"view"},{"type":"function","name":"allowance","inputs":[{"name":"owner","type":"address","internalType":"address"},{"name":"spender","type":"address","internalType":"address"}],"outputs":[{"name":"","type":"uint256","internalType":"uint256"}],"stateMutability":"view"},{"type":"function","name":"approve","inputs":[{"name":"spender","type":"address","internalType":"address"},{"name":"value","type":"uint256","internalType":"uint256"}],"outputs":[{"name":"","type":"bool","internalType":"bool"}],"stateMutability":"nonpayable"},{"type":"function","name":"balanceOf","inputs":[{"name":"account","type":"address","internalType":"address"}],"outputs":[{"name":"","type":"uint256","internalType":"uint256"}],"stateMutability":"view"},{"type":"function","name":"burn","inputs":[{"name":"from","type":"address","internalType":"address"},{"name":"amount","type":"uint256","internalType":"uint256"},{"name":"referenceId","type":"string","internalType":"string"}],"outputs":[],"stateMutability":"nonpayable"},{"type":"function","name":"decimals","inputs":[],"outputs":[{"name":"","type":"uint8","internalType":"uint8"}],"stateMutability":"pure"},{"type":"function","name":"freezeAddress","inputs":[{"name":"account","type":"address","internalType":"address"}],"outputs":[],"stateMutability":"nonpayable"},{"type":"function","name":"getRoleAdmin","inputs":[{"name":"role","type":"bytes32","internalType":"bytes32"}],"outputs":[{"name":"","type":"bytes32","internalType":"bytes32"}],"stateMutability":"view"},{"type":"function","name":"grantRole","inputs":[{"name":"role","type":"bytes32","internalType":"bytes32"},{"name":"account","type":"address","internalType":"address"}],"outputs":[],"stateMutability":"nonpayable"},{"type":"function","name":"hasRole","inputs":[{"name":"role","type":"bytes32","internalType":"bytes32"},{"name":"account","type":"address","internalType":"address"}],"outputs":[{"name":"","type":"bool","internalType":"bool"}],"stateMutability":"view"},{"type":"function","name":"initialize","inputs":[{"name":"admin","type":"address","internalType":"address"}],"outputs":[],"stateMutability":"nonpayable"},{"type":"function","name":"isFrozen","inputs":[{"name":"account","type":"address","internalType":"address"}],"outputs":[{"name":"","type":"bool","internalType":"bool"}],"stateMutability":"view"},{"type":"function","name":"isWhitelisted","inputs":[{"name":"account","type":"address","internalType":"address"}],"outputs":[{"name":"","type":"bool","internalType":"bool"}],"stateMutability":"view"},{"type":"function","name":"mint","inputs":[{"name":"to","type":"address","internalType":"address"},{"name":"amount","type":"uint256","internalType":"uint256"},{"name":"referenceId","type":"string","internalType":"string"}],"outputs":[],"stateMutability":"nonpayable"},{"type":"function","name":"name","inputs":[],"outputs":[{"name":"","type":"string","internalType":"string"}],"stateMutability":"view"},{"type":"function","name":"pause","inputs":[],"outputs":[],"stateMutability":"nonpayable"},{"type":"function","name":"paused","inputs":[],"outputs":[{"name":"","type":"bool","internalType":"bool"}],"stateMutability":"view"},{"type":"function","name":"proxiableUUID","inputs":[],"outputs":[{"name":"","type":"bytes32","internalType":"bytes32"}],"stateMutability":"view"},{"type":"function","name":"removeFromWhitelist","inputs":[{"name":"account","type":"address","internalType":"address"}],"outputs":[],"stateMutability":"nonpayable"},{"type":"function","name":"renounceRole","inputs":[{"name":"role","type":"bytes32","internalType":"bytes32"},{"name":"callerConfirmation","type":"address","internalType":"address"}],"outputs":[],"stateMutability":"nonpayable"},{"type":"function","name":"revokeRole","inputs":[{"name":"role","type":"bytes32","internalType":"bytes32"},{"name":"account","type":"address","internalType":"address"}],"outputs":[],"stateMutability":"nonpayable"},{"type":"function","name":"supportsInterface","inputs":[{"name":"interfaceId","type":"bytes4","internalType":"bytes4"}],"outputs":[{"name":"","type":"bool","internalType":"bool"}],"stateMutability":"view"},{"type":"function","name":"symbol","inputs":[],"outputs":[{"name":"","type":"string","internalType":"string"}],"stateMutability":"view"},{"type":"function","name":"totalSupply","inputs":[],"outputs":[{"name":"","type":"uint256","internalType":"uint256"}],"stateMutability":"view"},{"type":"function","name":"transfer","inputs":[{"name":"to","type":"address","internalType":"address"},{"name":"value","type":"uint256","internalType":"uint256"}],"outputs":[{"name":"","type":"bool","internalType":"bool"}],"stateMutability":"nonpayable"},{"type":"function","name":"transferFrom","inputs":[{"name":"from","type":"address","internalType":"address"},{"name":"to","type":"address","internalType":"address"},{"name":"value","type":"uint256","internalType":"uint256"}],"outputs":[{"name":"","type":"bool","internalType":"bool"}],"stateMutability":"nonpayable"},{"type":"function","name":"unfreezeAddress","inputs":[{"name":"account","type":"address","internalType":"address"}],"outputs":[],"stateMutability":"nonpayable"},{"type":"function","name":"unpause","inputs":[],"outputs":[],"stateMutability":"nonpayable"},{"type":"function","name":"upgradeToAndCall","inputs":[{"name":"newImplementation","type":"address","internalType":"address"},{"name":"data","type":"bytes","internalType":"bytes"}],"outputs":[],"stateMutability":"payable"},{"type":"function","name":"whitelistAddress","inputs":[{"name":"account","type":"address","internalType":"address"}],"outputs":[],"stateMutability":"nonpayable"},{"type":"event","name":"AddressFrozen","inputs":[{"name":"account","type":"address","indexed":true,"internalType":"address"}],"anonymous":false},{"type":"event","name":"AddressRemovedFromWhitelist","inputs":[{"name":"account","type":"address","indexed":true,"internalType":"address"}],"anonymous":false},{"type":"event","name":"AddressUnfrozen","inputs":[{"name":"account","type":"address","indexed":true,"internalType":"address"}],"anonymous":false},{"type":"event","name":"AddressWhitelisted","inputs":[{"name":"account","type":"address","indexed":true,"internalType":"address"}],"anonymous":false},{"type":"event","name":"Approval","inputs":[{"name":"owner","type":"address","indexed":true,"internalType":"address"},{"name":"spender","type":"address","indexed":true,"internalType":"address"},{"name":"value","type":"uint256","indexed":false,"internalType":"uint256"}],"anonymous":false},{"type":"event","name":"Burn","inputs":[{"name":"from","type":"address","indexed":true,"internalType":"address"},{"name":"amount","type":"uint256","indexed":false,"internalType":"uint256"},{"name":"referenceId","type":"string","indexed":false,"internalType":"string"}],"anonymous":false},{"type":"event","name":"Initialized","inputs":[{"name":"version","type":"uint64","indexed":false,"internalType":"uint64"}],"anonymous":false},{"type":"event","name":"Mint","inputs":[{"name":"to","type":"address","indexed":true,"internalType":"address"},{"name":"amount","type":"uint256","indexed":false,"internalType":"uint256"},{"name":"referenceId","type":"string","indexed":false,"internalType":"string"}],"anonymous":false},{"type":"event","name":"Paused","inputs":[{"name":"account","type":"address","indexed":false,"internalType":"address"}],"anonymous":false},{"type":"event","name":"RoleAdminChanged","inputs":[{"name":"role","type":"bytes32","indexed":true,"internalType":"bytes32"},{"name":"previousAdminRole","type":"bytes32","indexed":true,"internalType":"bytes32"},{"name":"newAdminRole","type":"bytes32","indexed":true,"internalType":"bytes32"}],"anonymous":false},{"type":"event","name":"RoleGranted","inputs":[{"name":"role","type":"bytes32","indexed":true,"internalType":"bytes32"},{"name":"account","type":"address","indexed":true,"internalType":"address"},{"name":"sender","type":"address","indexed":true,"internalType":"address"}],"anonymous":false},{"type":"event","name":"RoleRevoked","inputs":[{"name":"role","type":"bytes32","indexed":true,"internalType":"bytes32"},{"name":"account","type":"address","indexed":true,"internalType":"address"},{"name":"sender","type":"address","indexed":true,"internalType":"address"}],"anonymous":false},{"type":"event","name":"Transfer","inputs":[{"name":"from","type":"address","indexed":true,"internalType":"address"},{"name":"to","type":"address","indexed":true,"internalType":"address"},{"name":"value","type":"uint256","indexed":false,"internalType":"uint256"}],"anonymous":false},{"type":"event","name":"Unpaused","inputs":[{"name":"account","type":"address","indexed":false,"internalType":"address"}],"anonymous":false},{"type":"event","name":"Upgraded","inputs":[{"name":"implementation","type":"address","indexed":true,"internalType":"address"}],"anonymous":false},{"type":"error","name":"AccessControlBadConfirmation","inputs":[]},{"type":"error","name":"AccessControlUnauthorizedAccount","inputs":[{"name":"account","type":"address","internalType":"address"},{"name":"neededRole","type":"bytes32","internalType":"bytes32"}]},{"type":"error","name":"AccountFrozen","inputs":[{"name":"account","type":"address","internalType":"address"}]},{"type":"error","name":"AddressEmptyCode","inputs":[{"name":"target","type":"address","internalType":"address"}]},{"type":"error","name":"ERC1967InvalidImplementation","inputs":[{"name":"implementation","type":"address","internalType":"address"}]},{"type":"error","name":"ERC1967NonPayable","inputs":[]},{"type":"error","name":"ERC20InsufficientAllowance","inputs":[{"name":"spender","type":"address","internalType":"address"},{"name":"allowance","type":"uint256","internalType":"uint256"},{"name":"needed","type":"uint256","internalType":"uint256"}]},{"type":"error","name":"ERC20InsufficientBalance","inputs":[{"name":"sender","type":"address","internalType":"address"},{"name":"balance","type":"uint256","internalType":"uint256"},{"name":"needed","type":"uint256","internalType":"uint256"}]},{"type":"error","name":"ERC20InvalidApprover","inputs":[{"name":"approver","type":"address","internalType":"address"}]},{"type":"error","name":"ERC20InvalidReceiver","inputs":[{"name":"receiver","type":"address","internalType":"address"}]},{"type":"error","name":"ERC20InvalidSender","inputs":[{"name":"sender","type":"address","internalType":"address"}]},{"type":"error","name":"ERC20InvalidSpender","inputs":[{"name":"spender","type":"address","internalType":"address"}]},{"type":"error","name":"EnforcedPause","inputs":[]},{"type":"error","name":"ExpectedPause","inputs":[]},{"type":"error","name":"FailedCall","inputs":[]},{"type":"error","name":"InvalidInitialization","inputs":[]},{"type":"error","name":"NotInitializing","inputs":[]},{"type":"error","name":"NotWhitelisted","inputs":[{"name":"account","type":"address","internalType":"address"}]},{"type":"error","name":"UUPSUnauthorizedCallContext","inputs":[]},{"type":"error","name":"UUPSUnsupportedProxiableUUID","inputs":[{"name":"slot","type":"bytes32","internalType":"bytes32"}]}],"bytecode":{"object":"0x60a060405230608052348015610013575f80fd5b5061001c610021565b6100d3565b7ff0c57e16840df040f15088dc2f81fe391c3923bec73e23a9662efc9c229c6a00805468010000000000000000900460ff16156100715760405163f92ee8a960e01b815260040160405180910390fd5b80546001600160401b03908116146100d05780546001600160401b0319166001600160401b0390811782556040519081527fc7f505b2f371ae2175ee4913f4499e1f2633a7b5936321eed1cdaeb6115181d29060200160405180910390a15b50565b608051611fd26100f95f395f81816111dd0152818161120601526113670152611fd25ff3fe608060405260043610610207575f3560e01c80635c975abb11610113578063bfb805471161009d578063d547741f1161006d578063d547741f14610636578063dd62ed3e14610655578063e583983614610674578063e63ab1e9146106ab578063f72c0d8b146106cb575f80fd5b8063bfb80547146105a6578063c4d66de8146105c5578063d3fc9864146105e4578063d539139314610603575f80fd5b806391d14854116100e357806391d148541461051157806395d89b4114610530578063a217fddf14610544578063a9059cbb14610557578063ad3cb1cc14610576575f80fd5b80635c975abb1461047b57806370a082311461049e5780638456cb59146104de5780638ab1d681146104f2575f80fd5b80632f2ff15d116101945780633f4ba83a116101645780633f4ba83a1461040257806341566585146104165780634f1ef2861461043557806351e946d51461044857806352d1902d14610467575f80fd5b80632f2ff15d14610372578063313ce5671461039157806336568abe146103ac5780633af32abf146103cb575f80fd5b806315f570dc116101da57806315f570dc146102ad57806318160ddd146102ce57806323b872dd14610301578063248a9ca314610320578063282c51f31461033f575f80fd5b806301ffc9a71461020b578063062d3bd71461023f57806306fdde031461026d578063095ea7b31461028e575b5f80fd5b348015610216575f80fd5b5061022a610225366004611a5c565b6106fe565b60405190151581526020015b60405180910390f35b34801561024a575f80fd5b5061025f5f80516020611efc83398151915281565b604051908152602001610236565b348015610278575f80fd5b50610281610734565b6040516102369190611a8a565b348015610299575f80fd5b5061022a6102a8366004611ada565b6107f4565b3480156102b8575f80fd5b506102cc6102c7366004611b02565b61080b565b005b3480156102d9575f80fd5b507f52c63247e1f47db19d5ce0460030c497f067ca4cebf71ba98eeadabe20bace025461025f565b34801561030c575f80fd5b5061022a61031b366004611b85565b610893565b34801561032b575f80fd5b5061025f61033a366004611bbf565b6108b6565b34801561034a575f80fd5b5061025f7f3c11d16cbaffd01df69ce1c404f6340ee057498f5f00246190ea54220576a84881565b34801561037d575f80fd5b506102cc61038c366004611bd6565b6108d6565b34801561039c575f80fd5b5060405160068152602001610236565b3480156103b7575f80fd5b506102cc6103c6366004611bd6565b6108f8565b3480156103d6575f80fd5b5061022a6103e5366004611c00565b6001600160a01b03165f9081526020819052604090205460ff1690565b34801561040d575f80fd5b506102cc610930565b348015610421575f80fd5b506102cc610430366004611c00565b610952565b6102cc610443366004611c2d565b6109b5565b348015610453575f80fd5b506102cc610462366004611c00565b6109d4565b348015610472575f80fd5b5061025f610a3a565b348015610486575f80fd5b505f80516020611f5c8339815191525460ff1661022a565b3480156104a9575f80fd5b5061025f6104b8366004611c00565b6001600160a01b03165f9081525f80516020611ebc833981519152602052604090205490565b3480156104e9575f80fd5b506102cc610a55565b3480156104fd575f80fd5b506102cc61050c366004611c00565b610a74565b34801561051c575f80fd5b5061022a61052b366004611bd6565b610ad4565b34801561053b575f80fd5b50610281610b0a565b34801561054f575f80fd5b5061025f5f81565b348015610562575f80fd5b5061022a610571366004611ada565b610b48565b348015610581575f80fd5b50610281604051806040016040528060058152602001640352e302e360dc1b81525081565b3480156105b1575f80fd5b506102cc6105c0366004611c00565b610b55565b3480156105d0575f80fd5b506102cc6105df366004611c00565b610bb5565b3480156105ef575f80fd5b506102cc6105fe366004611b02565b610db0565b34801561060e575f80fd5b5061025f7f9f2df0fed2c77648de5860a4cc508cd0818c85b8b8a1ab4ceeef8d981c8956a681565b348015610641575f80fd5b506102cc610650366004611bd6565b610eb5565b348015610660575f80fd5b5061025f61066f366004611cf1565b610ed1565b34801561067f575f80fd5b5061022a61068e366004611c00565b6001600160a01b03165f9081526001602052604090205460ff1690565b3480156106b6575f80fd5b5061025f5f80516020611f1c83398151915281565b3480156106d6575f80fd5b5061025f7f189ab7a9244df0848122154315af71fe140f3db0fe014031783b0946b8c9d2e381565b5f6001600160e01b03198216637965db0b60e01b148061072e57506301ffc9a760e01b6001600160e01b03198316145b92915050565b7f52c63247e1f47db19d5ce0460030c497f067ca4cebf71ba98eeadabe20bace0380546060915f80516020611ebc8339815191529161077290611d19565b80601f016020809104026020016040519081016040528092919081815260200182805461079e90611d19565b80156107e95780601f106107c0576101008083540402835291602001916107e9565b820191905f5260205f20905b8154815290600101906020018083116107cc57829003601f168201915b505050505091505090565b5f33610801818585610f1a565b5060019392505050565b7f3c11d16cbaffd01df69ce1c404f6340ee057498f5f00246190ea54220576a84861083581610f27565b61083d610f31565b6108478585610f63565b846001600160a01b03167f47e772fda56eb54ab211642ce5421882c49fc2b7033455982af14588ae4207ff85858560405161088493929190611d51565b60405180910390a25050505050565b5f336108a0858285610f97565b6108ab858585610ff5565b506001949350505050565b5f9081525f80516020611f3c833981519152602052604090206001015490565b6108df826108b6565b6108e881610f27565b6108f28383611052565b50505050565b6001600160a01b03811633146109215760405163334bd91960e11b815260040160405180910390fd5b61092b82826110fa565b505050565b5f80516020611f1c83398151915261094781610f27565b61094f611173565b50565b5f80516020611efc83398151915261096981610f27565b6001600160a01b0382165f81815260208190526040808220805460ff19166001179055517f4f783c179409b4127238bc9c990bc99b9a651666a0d20b51d6c42849eb88466d9190a25050565b6109bd6111d2565b6109c682611276565b6109d082826112a0565b5050565b5f80516020611efc8339815191526109eb81610f27565b6001600160a01b0382165f818152600160208190526040808320805460ff1916909217909155517f90811a8edd3b3c17eeaefffc17f639cc69145d41a359c9843994dc25382036909190a25050565b5f610a4361135c565b505f80516020611edc83398151915290565b5f80516020611f1c833981519152610a6c81610f27565b61094f6113a5565b5f80516020611efc833981519152610a8b81610f27565b6001600160a01b0382165f81815260208190526040808220805460ff19169055517f535611fb62fa2a833988f283b779e417e996813e44046f521d76c17b5943b08c9190a25050565b5f9182525f80516020611f3c833981519152602090815260408084206001600160a01b0393909316845291905290205460ff1690565b7f52c63247e1f47db19d5ce0460030c497f067ca4cebf71ba98eeadabe20bace0480546060915f80516020611ebc8339815191529161077290611d19565b5f33610801818585610ff5565b5f80516020611efc833981519152610b6c81610f27565b6001600160a01b0382165f81815260016020526040808220805460ff19169055517fc3776b472ebf54114339eec9e4dc924e7ce307a97f5c1ee72b6d474e6e5e8b7c9190a25050565b5f610bbe6113ed565b805490915060ff600160401b820416159067ffffffffffffffff165f81158015610be55750825b90505f8267ffffffffffffffff166001148015610c015750303b155b905081158015610c0f575080155b15610c2d5760405163f92ee8a960e01b815260040160405180910390fd5b845467ffffffffffffffff191660011785558315610c5757845460ff60401b1916600160401b1785555b610c96604051806060016040528060218152602001611f7c60219139604051806040016040528060058152602001641b5d1554d160da1b815250611415565b610c9e611427565b610ca6611427565b610cb05f87611052565b50610cdb7f9f2df0fed2c77648de5860a4cc508cd0818c85b8b8a1ab4ceeef8d981c8956a687611052565b50610d067f3c11d16cbaffd01df69ce1c404f6340ee057498f5f00246190ea54220576a84887611052565b50610d1e5f80516020611efc83398151915287611052565b50610d497f189ab7a9244df0848122154315af71fe140f3db0fe014031783b0946b8c9d2e387611052565b50610d615f80516020611f1c83398151915287611052565b508315610da857845460ff60401b19168555604051600181527fc7f505b2f371ae2175ee4913f4499e1f2633a7b5936321eed1cdaeb6115181d29060200160405180910390a15b505050505050565b7f9f2df0fed2c77648de5860a4cc508cd0818c85b8b8a1ab4ceeef8d981c8956a6610dda81610f27565b610de2610f31565b6001600160a01b0385165f9081526020819052604090205460ff16610e2a57604051636f8bf18b60e11b81526001600160a01b03861660048201526024015b60405180910390fd5b6001600160a01b0385165f9081526001602052604090205460ff1615610e6e576040516327951b3f60e11b81526001600160a01b0386166004820152602401610e21565b610e78858561142f565b846001600160a01b03167f85a66b9141978db9980f7e0ce3b468cebf4f7999f32b23091c5c03e798b1ba7a85858560405161088493929190611d51565b610ebe826108b6565b610ec781610f27565b6108f283836110fa565b6001600160a01b039182165f9081527f52c63247e1f47db19d5ce0460030c497f067ca4cebf71ba98eeadabe20bace016020908152604080832093909416825291909152205490565b61092b8383836001611463565b61094f8133611547565b5f80516020611f5c8339815191525460ff1615610f615760405163d93c066560e01b815260040160405180910390fd5b565b6001600160a01b038216610f8c57604051634b637e8f60e11b81525f6004820152602401610e21565b6109d0825f83611580565b5f610fa28484610ed1565b90505f198110156108f25781811015610fe757604051637dc7a0d960e11b81526001600160a01b03841660048201526024810182905260448101839052606401610e21565b6108f284848484035f611463565b6001600160a01b03831661101e57604051634b637e8f60e11b81525f6004820152602401610e21565b6001600160a01b0382166110475760405163ec442f0560e01b81525f6004820152602401610e21565b61092b838383611580565b5f5f80516020611f3c83398151915261106b8484610ad4565b6110ea575f848152602082815260408083206001600160a01b03871684529091529020805460ff191660011790556110a03390565b6001600160a01b0316836001600160a01b0316857f2f8788117e7eff1d82e926ec794901d17c78024a50270940304540a733656f0d60405160405180910390a4600191505061072e565b5f91505061072e565b5092915050565b5f5f80516020611f3c8339815191526111138484610ad4565b156110ea575f848152602082815260408083206001600160a01b0387168085529252808320805460ff1916905551339287917ff6391f5c32d9c69d2a47ea670b442974b53935d1edc7fd64eb21e047a839171b9190a4600191505061072e565b61117b6116bf565b5f80516020611f5c833981519152805460ff191681557f5db9ee0a495bf2e6ff9c91a7834c1ba4fdd244a5e8aa4e537bd38aeae4b073aa335b6040516001600160a01b03909116815260200160405180910390a150565b306001600160a01b037f000000000000000000000000000000000000000000000000000000000000000016148061125857507f00000000000000000000000000000000000000000000000000000000000000006001600160a01b031661124c5f80516020611edc833981519152546001600160a01b031690565b6001600160a01b031614155b15610f615760405163703e46dd60e11b815260040160405180910390fd5b7f189ab7a9244df0848122154315af71fe140f3db0fe014031783b0946b8c9d2e36109d081610f27565b816001600160a01b03166352d1902d6040518163ffffffff1660e01b8152600401602060405180830381865afa9250505080156112fa575060408051601f3d908101601f191682019092526112f791810190611d86565b60015b61132257604051634c9c8ce360e01b81526001600160a01b0383166004820152602401610e21565b5f80516020611edc833981519152811461135257604051632a87526960e21b815260048101829052602401610e21565b61092b83836116ee565b306001600160a01b037f00000000000000000000000000000000000000000000000000000000000000001614610f615760405163703e46dd60e11b815260040160405180910390fd5b6113ad610f31565b5f80516020611f5c833981519152805460ff191660011781557f62e78cea01bee320cd4e420270b5ea74000d11b0c9f74754ebdbfc544b05a258336111b4565b5f807ff0c57e16840df040f15088dc2f81fe391c3923bec73e23a9662efc9c229c6a0061072e565b61141d611743565b6109d08282611768565b610f61611743565b6001600160a01b0382166114585760405163ec442f0560e01b81525f6004820152602401610e21565b6109d05f8383611580565b5f80516020611ebc8339815191526001600160a01b03851661149a5760405163e602df0560e01b81525f6004820152602401610e21565b6001600160a01b0384166114c357604051634a1406b160e11b81525f6004820152602401610e21565b6001600160a01b038086165f9081526001830160209081526040808320938816835292905220839055811561154057836001600160a01b0316856001600160a01b03167f8c5be1e5ebec7d5bd14f71427d1e84f3dd0314c0f7b2291e5b200ac8c7c3b9258560405161153791815260200190565b60405180910390a35b5050505050565b6115518282610ad4565b6109d05760405163e2517d3f60e01b81526001600160a01b038216600482015260248101839052604401610e21565b611588610f31565b6001600160a01b0383161561161e576001600160a01b0383165f9081526020819052604090205460ff166115da57604051636f8bf18b60e11b81526001600160a01b0384166004820152602401610e21565b6001600160a01b0383165f9081526001602052604090205460ff161561161e576040516327951b3f60e11b81526001600160a01b0384166004820152602401610e21565b6001600160a01b038216156116b4576001600160a01b0382165f9081526020819052604090205460ff1661167057604051636f8bf18b60e11b81526001600160a01b0383166004820152602401610e21565b6001600160a01b0382165f9081526001602052604090205460ff16156116b4576040516327951b3f60e11b81526001600160a01b0383166004820152602401610e21565b61092b8383836117b8565b5f80516020611f5c8339815191525460ff16610f6157604051638dfc202b60e01b815260040160405180910390fd5b6116f7826118f1565b6040516001600160a01b038316907fbc7cd75a20ee27fd9adebab32041f755214dbc6bffa90cc0225b39da2e5c2d3b905f90a280511561173b5761092b8282611954565b6109d06119ed565b61174b611a0c565b610f6157604051631afcd79f60e31b815260040160405180910390fd5b611770611743565b5f80516020611ebc8339815191527f52c63247e1f47db19d5ce0460030c497f067ca4cebf71ba98eeadabe20bace036117a98482611de1565b50600481016108f28382611de1565b5f80516020611ebc8339815191526001600160a01b0384166117f25781816002015f8282546117e79190611e9c565b909155506118629050565b6001600160a01b0384165f90815260208290526040902054828110156118445760405163391434e360e21b81526001600160a01b03861660048201526024810182905260448101849052606401610e21565b6001600160a01b0385165f9081526020839052604090209083900390555b6001600160a01b03831661188057600281018054839003905561189e565b6001600160a01b0383165f9081526020829052604090208054830190555b826001600160a01b0316846001600160a01b03167fddf252ad1be2c89b69c2b068fc378daa952ba7f163c4a11628f55a4df523b3ef846040516118e391815260200190565b60405180910390a350505050565b806001600160a01b03163b5f0361192657604051634c9c8ce360e01b81526001600160a01b0382166004820152602401610e21565b5f80516020611edc83398151915280546001600160a01b0319166001600160a01b0392909216919091179055565b60605f6119618484611a25565b905080801561198257505f3d118061198257505f846001600160a01b03163b115b156119975761198f611a38565b91505061072e565b80156119c157604051639996b31560e01b81526001600160a01b0385166004820152602401610e21565b3d156119d4576119cf611a51565b6110f3565b60405163d6bda27560e01b815260040160405180910390fd5b3415610f615760405163b398979f60e01b815260040160405180910390fd5b5f611a156113ed565b54600160401b900460ff16919050565b5f805f835160208501865af49392505050565b6040513d81523d5f602083013e3d602001810160405290565b6040513d5f823e3d81fd5b5f60208284031215611a6c575f80fd5b81356001600160e01b031981168114611a83575f80fd5b9392505050565b602081525f82518060208401528060208501604085015e5f604082850101526040601f19601f83011684010191505092915050565b80356001600160a01b0381168114611ad5575f80fd5b919050565b5f8060408385031215611aeb575f80fd5b611af483611abf565b946020939093013593505050565b5f805f8060608587031215611b15575f80fd5b611b1e85611abf565b935060208501359250604085013567ffffffffffffffff811115611b40575f80fd5b8501601f81018713611b50575f80fd5b803567ffffffffffffffff811115611b66575f80fd5b876020828401011115611b77575f80fd5b949793965060200194505050565b5f805f60608486031215611b97575f80fd5b611ba084611abf565b9250611bae60208501611abf565b929592945050506040919091013590565b5f60208284031215611bcf575f80fd5b5035919050565b5f8060408385031215611be7575f80fd5b82359150611bf760208401611abf565b90509250929050565b5f60208284031215611c10575f80fd5b611a8382611abf565b634e487b7160e01b5f52604160045260245ffd5b5f8060408385031215611c3e575f80fd5b611c4783611abf565b9150602083013567ffffffffffffffff811115611c62575f80fd5b8301601f81018513611c72575f80fd5b803567ffffffffffffffff811115611c8c57611c8c611c19565b604051601f8201601f19908116603f0116810167ffffffffffffffff81118282101715611cbb57611cbb611c19565b604052818152828201602001871015611cd2575f80fd5b816020840160208301375f602083830101528093505050509250929050565b5f8060408385031215611d02575f80fd5b611d0b83611abf565b9150611bf760208401611abf565b600181811c90821680611d2d57607f821691505b602082108103611d4b57634e487b7160e01b5f52602260045260245ffd5b50919050565b83815260406020820152816040820152818360608301375f818301606090810191909152601f909201601f1916010192915050565b5f60208284031215611d96575f80fd5b5051919050565b601f82111561092b57805f5260205f20601f840160051c81016020851015611dc25750805b601f840160051c820191505b81811015611540575f8155600101611dce565b815167ffffffffffffffff811115611dfb57611dfb611c19565b611e0f81611e098454611d19565b84611d9d565b6020601f821160018114611e41575f8315611e2a5750848201515b5f19600385901b1c1916600184901b178455611540565b5f84815260208120601f198516915b82811015611e705787850151825560209485019460019092019101611e50565b5084821015611e8d57868401515f19600387901b60f8161c191681555b50505050600190811b01905550565b8082018082111561072e57634e487b7160e01b5f52601160045260245ffdfe52c63247e1f47db19d5ce0460030c497f067ca4cebf71ba98eeadabe20bace00360894a13ba1a3210667c828492db98dca3e2076cc3735a920a3ca505d382bbc442a94f1a1fac79af32856af2a64f63648cfa2ef3b98610a5bb7cbec4cee698565d7a28e3265b37a6474929f336521b332c1681b933f6cb9f3376673440d862a02dd7bc7dec4dceedda775e58dd541e08a116c6c53815c0bd028192f7b626800cd5ed15c6e187e77e9aee88184c21f4f2182ab5827cb3b7e07fbedcd63f033004d26542042616e6b20546f6b656e697a6564204465706f73697420284361726929a2646970667358221220e608e5b798a71083afdd98ee5a4e4f405bf9532104eb3cd86d4d9b01d80810cd64736f6c634300081a0033","linkReferences":{}},"methodIdentifiers":{"BURNER_ROLE()":"282c51f3","COMPLIANCE_ROLE()":"062d3bd7","DEFAULT_ADMIN_ROLE()":"a217fddf","MINTER_ROLE()":"d5391393","PAUSER_ROLE()":"e63ab1e9","UPGRADER_ROLE()":"f72c0d8b","UPGRADE_INTERFACE_VERSION()":"ad3cb1cc","allowance(address,address)":"dd62ed3e","approve(address,uint256)":"095ea7b3","balanceOf(address)":"70a08231","burn(address,uint256,string)":"15f570dc","decimals()":"313ce567","freezeAddress(address)":"51e946d5","getRoleAdmin(bytes32)":"248a9ca3","grantRole(bytes32,address)":"2f2ff15d","hasRole(bytes32,address)":"91d14854","initialize(address)":"c4d66de8","isFrozen(address)":"e5839836","isWhitelisted(address)":"3af32abf","mint(address,uint256,string)":"d3fc9864","name()":"06fdde03","pause()":"8456cb59","paused()":"5c975abb","proxiableUUID()":"52d1902d","removeFromWhitelist(address)":"8ab1d681","renounceRole(bytes32,address)":"36568abe","revokeRole(bytes32,address)":"d547741f","supportsInterface(bytes4)":"01ffc9a7","symbol()":"95d89b41","totalSupply()":"18160ddd","transfer(address,uint256)":"a9059cbb","transferFrom(address,address,uint256)":"23b872dd","unfreezeAddress(address)":"bfb80547","unpause()":"3f4ba83a","upgradeToAndCall(address,bytes)":"4f1ef286","whitelistAddress(address)":"41566585"},"id":2}