{"abi":[{"type":"constructor","inputs":[],"stateMutability":"nonpayable"},{"type":"function","name":"ATTESTOR_ROLE","inputs":[],"outputs":[{"name":"","type":"bytes32","internalType":"bytes32"}],"stateMutability":"view"},{"type":"function","name":"DEFAULT_ADMIN_ROLE","inputs":[],"outputs":[{"name":"","type":"bytes32","internalType":"bytes32"}],"stateMutability":"view"},{"type":"function","name":"PAUSER_ROLE","inputs":[],"outputs":[{"name":"","type":"bytes32","internalType":"bytes32"}],"stateMutability":"view"},{"type":"function","name":"STALENESS_WARNING_PCT","inputs":[],"outputs":[{"name":"","type":"uint256","internalType":"uint256"}],"stateMutability":"view"},{"type":"function","name":"UPGRADER_ROLE","inputs":[],"outputs":[{"name":"","type":"bytes32","internalType":"bytes32"}],"stateMutability":"view"},{"type":"function","name":"UPGRADE_INTERFACE_VERSION","inputs":[],"outputs":[{"name":"","type":"string","internalType":"string"}],"stateMutability":"view"},{"type":"function","name":"attestationHash","inputs":[],"outputs":[{"name":"","type":"bytes32","internalType":"bytes32"}],"stateMutability":"view"},{"type":"function","name":"canMint","inputs":[{"name":"currentSupply","type":"uint256","internalType":"uint256"},{"name":"mintAmount","type":"uint256","internalType":"uint256"}],"outputs":[{"name":"","type":"bool","internalType":"bool"}],"stateMutability":"view"},{"type":"function","name":"checkStaleness","inputs":[],"outputs":[{"name":"isFresh","type":"bool","internalType":"bool"},{"name":"secondsUntilStale","type":"uint256","internalType":"uint256"}],"stateMutability":"nonpayable"},{"type":"function","name":"getRoleAdmin","inputs":[{"name":"role","type":"bytes32","internalType":"bytes32"}],"outputs":[{"name":"","type":"bytes32","internalType":"bytes32"}],"stateMutability":"view"},{"type":"function","name":"grantRole","inputs":[{"name":"role","type":"bytes32","internalType":"bytes32"},{"name":"account","type":"address","internalType":"address"}],"outputs":[],"stateMutability":"nonpayable"},{"type":"function","name":"hasRole","inputs":[{"name":"role","type":"bytes32","internalType":"bytes32"},{"name":"account","type":"address","internalType":"address"}],"outputs":[{"name":"","type":"bool","internalType":"bool"}],"stateMutability":"view"},{"type":"function","name":"initialize","inputs":[{"name":"admin","type":"address","internalType":"address"},{"name":"attestor","type":"address","internalType":"address"},{"name":"_maxStaleness","type":"uint256","internalType":"uint256"}],"outputs":[],"stateMutability":"nonpayable"},{"type":"function","name":"isAttestationFresh","inputs":[],"outputs":[{"name":"","type":"bool","internalType":"bool"}],"stateMutability":"view"},{"type":"function","name":"lastAttestedAt","inputs":[],"outputs":[{"name":"","type":"uint256","internalType":"uint256"}],"stateMutability":"view"},{"type":"function","name":"maxStaleness","inputs":[],"outputs":[{"name":"","type":"uint256","internalType":"uint256"}],"stateMutability":"view"},{"type":"function","name":"pause","inputs":[],"outputs":[],"stateMutability":"nonpayable"},{"type":"function","name":"paused","inputs":[],"outputs":[{"name":"","type":"bool","internalType":"bool"}],"stateMutability":"view"},{"type":"function","name":"proxiableUUID","inputs":[],"outputs":[{"name":"","type":"bytes32","internalType":"bytes32"}],"stateMutability":"view"},{"type":"function","name":"renounceRole","inputs":[{"name":"role","type":"bytes32","internalType":"bytes32"},{"name":"callerConfirmation","type":"address","internalType":"address"}],"outputs":[],"stateMutability":"nonpayable"},{"type":"function","name":"revokeRole","inputs":[{"name":"role","type":"bytes32","internalType":"bytes32"},{"name":"account","type":"address","internalType":"address"}],"outputs":[],"stateMutability":"nonpayable"},{"type":"function","name":"setMaxStaleness","inputs":[{"name":"newMaxStaleness","type":"uint256","internalType":"uint256"}],"outputs":[],"stateMutability":"nonpayable"},{"type":"function","name":"stalenessWarningThresholdSeconds","inputs":[],"outputs":[{"name":"","type":"uint256","internalType":"uint256"}],"stateMutability":"view"},{"type":"function","name":"supportsInterface","inputs":[{"name":"interfaceId","type":"bytes4","internalType":"bytes4"}],"outputs":[{"name":"","type":"bool","internalType":"bool"}],"stateMutability":"view"},{"type":"function","name":"totalReserves","inputs":[],"outputs":[{"name":"","type":"uint256","internalType":"uint256"}],"stateMutability":"view"},{"type":"function","name":"unpause","inputs":[],"outputs":[],"stateMutability":"nonpayable"},{"type":"function","name":"updateAttestation","inputs":[{"name":"newTotalReserves","type":"uint256","internalType":"uint256"},{"name":"newAttestationHash","type":"bytes32","internalType":"bytes32"}],"outputs":[],"stateMutability":"nonpayable"},{"type":"function","name":"upgradeToAndCall","inputs":[{"name":"newImplementation","type":"address","internalType":"address"},{"name":"data","type":"bytes","internalType":"bytes"}],"outputs":[],"stateMutability":"payable"},{"type":"event","name":"AttestationStale","inputs":[{"name":"lastAttestedAt","type":"uint256","indexed":false,"internalType":"uint256"},{"name":"maxStaleness","type":"uint256","indexed":false,"internalType":"uint256"},{"name":"currentTimestamp","type":"uint256","indexed":false,"internalType":"uint256"}],"anonymous":false},{"type":"event","name":"AttestationStalenessWarning","inputs":[{"name":"lastAttestedAt","type":"uint256","indexed":false,"internalType":"uint256"},{"name":"maxStaleness","type":"uint256","indexed":false,"internalType":"uint256"},{"name":"currentTimestamp","type":"uint256","indexed":false,"internalType":"uint256"}],"anonymous":false},{"type":"event","name":"Initialized","inputs":[{"name":"version","type":"uint64","indexed":false,"internalType":"uint64"}],"anonymous":false},{"type":"event","name":"MaxStalenessUpdated","inputs":[{"name":"oldValue","type":"uint256","indexed":false,"internalType":"uint256"},{"name":"newValue","type":"uint256","indexed":false,"internalType":"uint256"}],"anonymous":false},{"type":"event","name":"Paused","inputs":[{"name":"account","type":"address","indexed":false,"internalType":"address"}],"anonymous":false},{"type":"event","name":"ReserveAttestationUpdated","inputs":[{"name":"totalReserves","type":"uint256","indexed":false,"internalType":"uint256"},{"name":"attestedAt","type":"uint256","indexed":false,"internalType":"uint256"},{"name":"attestationHash","type":"bytes32","indexed":false,"internalType":"bytes32"}],"anonymous":false},{"type":"event","name":"RoleAdminChanged","inputs":[{"name":"role","type":"bytes32","indexed":true,"internalType":"bytes32"},{"name":"previousAdminRole","type":"bytes32","indexed":true,"internalType":"bytes32"},{"name":"newAdminRole","type":"bytes32","indexed":true,"internalType":"bytes32"}],"anonymous":false},{"type":"event","name":"RoleGranted","inputs":[{"name":"role","type":"bytes32","indexed":true,"internalType":"bytes32"},{"name":"account","type":"address","indexed":true,"internalType":"address"},{"name":"sender","type":"address","indexed":true,"internalType":"address"}],"anonymous":false},{"type":"event","name":"RoleRevoked","inputs":[{"name":"role","type":"bytes32","indexed":true,"internalType":"bytes32"},{"name":"account","type":"address","indexed":true,"internalType":"address"},{"name":"sender","type":"address","indexed":true,"internalType":"address"}],"anonymous":false},{"type":"event","name":"Unpaused","inputs":[{"name":"account","type":"address","indexed":false,"internalType":"address"}],"anonymous":false},{"type":"event","name":"Upgraded","inputs":[{"name":"implementation","type":"address","indexed":true,"internalType":"address"}],"anonymous":false},{"type":"error","name":"AccessControlBadConfirmation","inputs":[]},{"type":"error","name":"AccessControlUnauthorizedAccount","inputs":[{"name":"account","type":"address","internalType":"address"},{"name":"neededRole","type":"bytes32","internalType":"bytes32"}]},{"type":"error","name":"AddressEmptyCode","inputs":[{"name":"target","type":"address","internalType":"address"}]},{"type":"error","name":"AttestationStaleError","inputs":[{"name":"attestedAt","type":"uint256","internalType":"uint256"},{"name":"threshold","type":"uint256","internalType":"uint256"}]},{"type":"error","name":"ERC1967InvalidImplementation","inputs":[{"name":"implementation","type":"address","internalType":"address"}]},{"type":"error","name":"ERC1967NonPayable","inputs":[]},{"type":"error","name":"EnforcedPause","inputs":[]},{"type":"error","name":"ExpectedPause","inputs":[]},{"type":"error","name":"FailedCall","inputs":[]},{"type":"error","name":"InvalidInitialization","inputs":[]},{"type":"error","name":"InvalidStaleness","inputs":[]},{"type":"error","name":"NotInitializing","inputs":[]},{"type":"error","name":"UUPSUnauthorizedCallContext","inputs":[]},{"type":"error","name":"UUPSUnsupportedProxiableUUID","inputs":[{"name":"slot","type":"bytes32","internalType":"bytes32"}]},{"type":"error","name":"ZeroReserves","inputs":[]}],"bytecode":{"object":"0x60a060405230608052348015610013575f80fd5b5061001c610021565b6100d3565b7ff0c57e16840df040f15088dc2f81fe391c3923bec73e23a9662efc9c229c6a00805468010000000000000000900460ff16156100715760405163f92ee8a960e01b815260040160405180910390fd5b80546001600160401b03908116146100d05780546001600160401b0319166001600160401b0390811782556040519081527fc7f505b2f371ae2175ee4913f4499e1f2633a7b5936321eed1cdaeb6115181d29060200160405180910390a15b50565b6080516114926100f95f395f8181610cd201528181610cfb0152610e6101526114925ff3fe6080604052600436106101af575f3560e01c80638456cb59116100e7578063b72a1b2311610087578063d30e9a0511610062578063d30e9a051461047c578063d547741f1461049b578063e63ab1e9146104ba578063f72c0d8b146104da575f80fd5b8063b72a1b2314610429578063c8931eed1461043d578063c8aa561d14610468575f80fd5b806391d14854116100c257806391d14854146103a657806392b0c114146103c5578063a217fddf146103d9578063ad3cb1cc146103ec575f80fd5b80638456cb591461036a57806387cf46961461037e5780638f840ddd14610393575f80fd5b806336568abe116101525780634f1ef2861161012d5780634f1ef286146102ed57806352d1902d146103005780635c975abb146103145780636272364414610337575f80fd5b806336568abe146102a65780633f4ba83a146102c55780634adb4cc8146102d9575f80fd5b80631794bb3c1161018d5780631794bb3c1461022a57806322e1dea914610249578063248a9ca3146102685780632f2ff15d14610287575f80fd5b806301ffc9a7146101b3578063100bc9e1146101e75780631738176d14610208575b5f80fd5b3480156101be575f80fd5b506101d26101cd366004611164565b61050d565b60405190151581526020015b60405180910390f35b3480156101f2575f80fd5b50610206610201366004611192565b610543565b005b348015610213575f80fd5b5061021c6105b4565b6040519081526020016101de565b348015610235575f80fd5b506102066102443660046111c4565b6105d5565b348015610254575f80fd5b506101d26102633660046111fe565b610775565b348015610273575f80fd5b5061021c610282366004611192565b6107a9565b348015610292575f80fd5b506102066102a136600461121e565b6107c9565b3480156102b1575f80fd5b506102066102c036600461121e565b6107eb565b3480156102d0575f80fd5b50610206610823565b3480156102e4575f80fd5b5060015461021c565b6102066102fb36600461125c565b610845565b34801561030b575f80fd5b5061021c610864565b34801561031f575f80fd5b505f8051602061143d8339815191525460ff166101d2565b348015610342575f80fd5b5061021c7fa7e0cd0f2772b23ee4c329892293a6bd99d48c306b094d6d008c9a8bb8b731e481565b348015610375575f80fd5b5061020661087f565b348015610389575f80fd5b5061021c60035481565b34801561039e575f80fd5b505f5461021c565b3480156103b1575f80fd5b506101d26103c036600461121e565b61089e565b3480156103d0575f80fd5b5061021c604b81565b3480156103e4575f80fd5b5061021c5f81565b3480156103f7575f80fd5b5061041c604051806040016040528060058152602001640352e302e360dc1b81525081565b6040516101de9190611320565b348015610434575f80fd5b506101d26108d4565b348015610448575f80fd5b506104516108fb565b6040805192151583526020830191909152016101de565b348015610473575f80fd5b5060025461021c565b348015610487575f80fd5b506102066104963660046111fe565b610a50565b3480156104a6575f80fd5b506102066104b536600461121e565b610aef565b3480156104c5575f80fd5b5061021c5f805160206113fd83398151915281565b3480156104e5575f80fd5b5061021c7f189ab7a9244df0848122154315af71fe140f3db0fe014031783b0946b8c9d2e381565b5f6001600160e01b03198216637965db0b60e01b148061053d57506301ffc9a760e01b6001600160e01b03198316145b92915050565b5f61054d81610b0b565b815f0361056d57604051636351541960e01b815260040160405180910390fd5b600380549083905560408051828152602081018590527f9843f62f065b46649ec181ada7772d5c94055361bc052184193831e5cbcb9f6591015b60405180910390a1505050565b5f6064604b6003546105c69190611369565b6105d09190611380565b905090565b5f6105de610b15565b805490915060ff600160401b820416159067ffffffffffffffff165f811580156106055750825b90505f8267ffffffffffffffff1660011480156106215750303b155b90508115801561062f575080155b1561064d5760405163f92ee8a960e01b815260040160405180910390fd5b845467ffffffffffffffff19166001178555831561067757845460ff60401b1916600160401b1785555b855f0361069757604051636351541960e01b815260040160405180910390fd5b61069f610b3d565b6106a7610b3d565b6106b15f89610b47565b506106dc7fa7e0cd0f2772b23ee4c329892293a6bd99d48c306b094d6d008c9a8bb8b731e488610b47565b506107077f189ab7a9244df0848122154315af71fe140f3db0fe014031783b0946b8c9d2e389610b47565b5061071f5f805160206113fd83398151915289610b47565b506003869055831561076b57845460ff60401b19168555604051600181527fc7f505b2f371ae2175ee4913f4499e1f2633a7b5936321eed1cdaeb6115181d29060200160405180910390a15b5050505050505050565b5f600354600154610786919061139f565b42111561079457505f61053d565b5f546107a0838561139f565b11159392505050565b5f9081525f8051602061141d833981519152602052604090206001015490565b6107d2826107a9565b6107db81610b0b565b6107e58383610b47565b50505050565b6001600160a01b03811633146108145760405163334bd91960e11b815260040160405180910390fd5b61081e8282610bef565b505050565b5f805160206113fd83398151915261083a81610b0b565b610842610c68565b50565b61084d610cc7565b61085682610d6b565b6108608282610d95565b5050565b5f61086d610e56565b505f805160206113dd83398151915290565b5f805160206113fd83398151915261089681610b0b565b610842610e9f565b5f9182525f8051602061141d833981519152602090815260408084206001600160a01b0393909316845291905290205460ff1690565b5f6001545f036108e357505f90565b6003546001546108f3919061139f565b421115905090565b5f806001545f0361095057600354604080515f815260208101929092524282820152517f0362beca13a8307198c9a26cb58f7698d44c72e29f9a86695558c3f63dd0b8199181900360600190a1505f91829150565b5f6001544261095f91906113b2565b90505f6064604b6003546109739190611369565b61097d9190611380565b90506003548211156109d9576001546003546040805192835260208301919091524282820152517f0362beca13a8307198c9a26cb58f7698d44c72e29f9a86695558c3f63dd0b8199181900360600190a1505f93849350915050565b80821115610a40576001546003546040805192835260208301919091524282820152517fb77ef0cccd54c8790858cf0d3beb6c64cc0a3244d529e40569a031a2fcb9d86b9181900360600190a1600182600354610a3691906113b2565b9350935050509091565b600182600354610a3691906113b2565b7fa7e0cd0f2772b23ee4c329892293a6bd99d48c306b094d6d008c9a8bb8b731e4610a7a81610b0b565b610a82610ee7565b825f03610aa257604051636e5e779f60e11b815260040160405180910390fd5b5f839055426001819055600283905560408051858152602081019290925281018390527f366f113ae03648a33854b99e62da08962ef9c14d96f99e8653d019f016c3eb9a906060016105a7565b610af8826107a9565b610b0181610b0b565b6107e58383610bef565b6108428133610f17565b5f807ff0c57e16840df040f15088dc2f81fe391c3923bec73e23a9662efc9c229c6a0061053d565b610b45610f50565b565b5f5f8051602061141d833981519152610b60848461089e565b610bdf575f848152602082815260408083206001600160a01b03871684529091529020805460ff19166001179055610b953390565b6001600160a01b0316836001600160a01b0316857f2f8788117e7eff1d82e926ec794901d17c78024a50270940304540a733656f0d60405160405180910390a4600191505061053d565b5f91505061053d565b5092915050565b5f5f8051602061141d833981519152610c08848461089e565b15610bdf575f848152602082815260408083206001600160a01b0387168085529252808320805460ff1916905551339287917ff6391f5c32d9c69d2a47ea670b442974b53935d1edc7fd64eb21e047a839171b9190a4600191505061053d565b610c70610f75565b5f8051602061143d833981519152805460ff191681557f5db9ee0a495bf2e6ff9c91a7834c1ba4fdd244a5e8aa4e537bd38aeae4b073aa335b6040516001600160a01b03909116815260200160405180910390a150565b306001600160a01b037f0000000000000000000000000000000000000000000000000000000000000000161480610d4d57507f00000000000000000000000000000000000000000000000000000000000000006001600160a01b0316610d415f805160206113dd833981519152546001600160a01b031690565b6001600160a01b031614155b15610b455760405163703e46dd60e11b815260040160405180910390fd5b7f189ab7a9244df0848122154315af71fe140f3db0fe014031783b0946b8c9d2e361086081610b0b565b816001600160a01b03166352d1902d6040518163ffffffff1660e01b8152600401602060405180830381865afa925050508015610def575060408051601f3d908101601f19168201909252610dec918101906113c5565b60015b610e1c57604051634c9c8ce360e01b81526001600160a01b03831660048201526024015b60405180910390fd5b5f805160206113dd8339815191528114610e4c57604051632a87526960e21b815260048101829052602401610e13565b61081e8383610fa4565b306001600160a01b037f00000000000000000000000000000000000000000000000000000000000000001614610b455760405163703e46dd60e11b815260040160405180910390fd5b610ea7610ee7565b5f8051602061143d833981519152805460ff191660011781557f62e78cea01bee320cd4e420270b5ea74000d11b0c9f74754ebdbfc544b05a25833610ca9565b5f8051602061143d8339815191525460ff1615610b455760405163d93c066560e01b815260040160405180910390fd5b610f21828261089e565b6108605760405163e2517d3f60e01b81526001600160a01b038216600482015260248101839052604401610e13565b610f58610ff9565b610b4557604051631afcd79f60e31b815260040160405180910390fd5b5f8051602061143d8339815191525460ff16610b4557604051638dfc202b60e01b815260040160405180910390fd5b610fad82611012565b6040516001600160a01b038316907fbc7cd75a20ee27fd9adebab32041f755214dbc6bffa90cc0225b39da2e5c2d3b905f90a2805115610ff15761081e8282611075565b61086061110e565b5f611002610b15565b54600160401b900460ff16919050565b806001600160a01b03163b5f0361104757604051634c9c8ce360e01b81526001600160a01b0382166004820152602401610e13565b5f805160206113dd83398151915280546001600160a01b0319166001600160a01b0392909216919091179055565b60605f611082848461112d565b90508080156110a357505f3d11806110a357505f846001600160a01b03163b115b156110b8576110b0611140565b91505061053d565b80156110e257604051639996b31560e01b81526001600160a01b0385166004820152602401610e13565b3d156110f5576110f0611159565b610be8565b60405163d6bda27560e01b815260040160405180910390fd5b3415610b455760405163b398979f60e01b815260040160405180910390fd5b5f805f835160208501865af49392505050565b6040513d81523d5f602083013e3d602001810160405290565b6040513d5f823e3d81fd5b5f60208284031215611174575f80fd5b81356001600160e01b03198116811461118b575f80fd5b9392505050565b5f602082840312156111a2575f80fd5b5035919050565b80356001600160a01b03811681146111bf575f80fd5b919050565b5f805f606084860312156111d6575f80fd5b6111df846111a9565b92506111ed602085016111a9565b929592945050506040919091013590565b5f806040838503121561120f575f80fd5b50508035926020909101359150565b5f806040838503121561122f575f80fd5b8235915061123f602084016111a9565b90509250929050565b634e487b7160e01b5f52604160045260245ffd5b5f806040838503121561126d575f80fd5b611276836111a9565b9150602083013567ffffffffffffffff811115611291575f80fd5b8301601f810185136112a1575f80fd5b803567ffffffffffffffff8111156112bb576112bb611248565b604051601f8201601f19908116603f0116810167ffffffffffffffff811182821017156112ea576112ea611248565b604052818152828201602001871015611301575f80fd5b816020840160208301375f602083830101528093505050509250929050565b602081525f82518060208401528060208501604085015e5f604082850101526040601f19601f83011684010191505092915050565b634e487b7160e01b5f52601160045260245ffd5b808202811582820484141761053d5761053d611355565b5f8261139a57634e487b7160e01b5f52601260045260245ffd5b500490565b8082018082111561053d5761053d611355565b8181038181111561053d5761053d611355565b5f602082840312156113d5575f80fd5b505191905056fe360894a13ba1a3210667c828492db98dca3e2076cc3735a920a3ca505d382bbc65d7a28e3265b37a6474929f336521b332c1681b933f6cb9f3376673440d862a02dd7bc7dec4dceedda775e58dd541e08a116c6c53815c0bd028192f7b626800cd5ed15c6e187e77e9aee88184c21f4f2182ab5827cb3b7e07fbedcd63f03300a264697066735822122002cba753302996e395b4fdde78b54bd2b813dcc3a0f9901eb0ba2156d41df42564736f6c634300081a0033","linkReferences":{}},"methodIdentifiers":{"ATTESTOR_ROLE()":"62723644","DEFAULT_ADMIN_ROLE()":"a217fddf","PAUSER_ROLE()":"e63ab1e9","STALENESS_WARNING_PCT()":"92b0c114","UPGRADER_ROLE()":"f72c0d8b","UPGRADE_INTERFACE_VERSION()":"ad3cb1cc","attestationHash()":"c8aa561d","canMint(uint256,uint256)":"22e1dea9","checkStaleness()":"c8931eed","getRoleAdmin(bytes32)":"248a9ca3","grantRole(bytes32,address)":"2f2ff15d","hasRole(bytes32,address)":"91d14854","initialize(address,address,uint256)":"1794bb3c","isAttestationFresh()":"b72a1b23","lastAttestedAt()":"4adb4cc8","maxStaleness()":"87cf4696","pause()":"8456cb59","paused()":"5c975abb","proxiableUUID()":"52d1902d","renounceRole(bytes32,address)":"36568abe","revokeRole(bytes32,address)":"d547741f","setMaxStaleness(uint256)":"100bc9e1","stalenessWarningThresholdSeconds()":"1738176d","supportsInterface(bytes4)":"01ffc9a7","totalReserves()":"8f840ddd","unpause()":"3f4ba83a","updateAttestation(uint256,bytes32)":"d30e9a05","upgradeToAndCall(address,bytes)":"4f1ef286"},"id":4}