{"abi":[{"type":"constructor","inputs":[],"stateMutability":"nonpayable"},{"type":"function","name":"BURNER_ROLE","inputs":[],"outputs":[{"name":"","type":"bytes32","internalType":"bytes32"}],"stateMutability":"view"},{"type":"function","name":"COMPLIANCE_ROLE","inputs":[],"outputs":[{"name":"","type":"bytes32","internalType":"bytes32"}],"stateMutability":"view"},{"type":"function","name":"DEFAULT_ADMIN_ROLE","inputs":[],"outputs":[{"name":"","type":"bytes32","internalType":"bytes32"}],"stateMutability":"view"},{"type":"function","name":"MINTER_ROLE","inputs":[],"outputs":[{"name":"","type":"bytes32","internalType":"bytes32"}],"stateMutability":"view"},{"type":"function","name":"OPERATOR_ROLE","inputs":[],"outputs":[{"name":"","type":"bytes32","internalType":"bytes32"}],"stateMutability":"view"},{"type":"function","name":"PAUSER_ROLE","inputs":[],"outputs":[{"name":"","type":"bytes32","internalType":"bytes32"}],"stateMutability":"view"},{"type":"function","name":"SETTLEMENT_ROLE","inputs":[],"outputs":[{"name":"","type":"bytes32","internalType":"bytes32"}],"stateMutability":"view"},{"type":"function","name":"UPGRADER_ROLE","inputs":[],"outputs":[{"name":"","type":"bytes32","internalType":"bytes32"}],"stateMutability":"view"},{"type":"function","name":"UPGRADE_INTERFACE_VERSION","inputs":[],"outputs":[{"name":"","type":"string","internalType":"string"}],"stateMutability":"view"},{"type":"function","name":"allowance","inputs":[{"name":"owner","type":"address","internalType":"address"},{"name":"spender","type":"address","internalType":"address"}],"outputs":[{"name":"","type":"uint256","internalType":"uint256"}],"stateMutability":"view"},{"type":"function","name":"approve","inputs":[{"name":"spender","type":"address","internalType":"address"},{"name":"value","type":"uint256","internalType":"uint256"}],"outputs":[{"name":"","type":"bool","internalType":"bool"}],"stateMutability":"nonpayable"},{"type":"function","name":"balanceOf","inputs":[{"name":"account","type":"address","internalType":"address"}],"outputs":[{"name":"","type":"uint256","internalType":"uint256"}],"stateMutability":"view"},{"type":"function","name":"burn","inputs":[{"name":"from","type":"address","internalType":"address"},{"name":"amount","type":"uint256","internalType":"uint256"},{"name":"referenceId","type":"string","internalType":"string"}],"outputs":[],"stateMutability":"nonpayable"},{"type":"function","name":"cariSettlement","inputs":[],"outputs":[{"name":"","type":"address","internalType":"address"}],"stateMutability":"view"},{"type":"function","name":"decimals","inputs":[],"outputs":[{"name":"","type":"uint8","internalType":"uint8"}],"stateMutability":"pure"},{"type":"function","name":"forceTransfer","inputs":[{"name":"from","type":"address","internalType":"address"},{"name":"to","type":"address","internalType":"address"},{"name":"amount","type":"uint256","internalType":"uint256"},{"name":"reason","type":"string","internalType":"string"}],"outputs":[],"stateMutability":"nonpayable"},{"type":"function","name":"freezeAddress","inputs":[{"name":"account","type":"address","internalType":"address"}],"outputs":[],"stateMutability":"nonpayable"},{"type":"function","name":"getRoleAdmin","inputs":[{"name":"role","type":"bytes32","internalType":"bytes32"}],"outputs":[{"name":"","type":"bytes32","internalType":"bytes32"}],"stateMutability":"view"},{"type":"function","name":"grantRole","inputs":[{"name":"role","type":"bytes32","internalType":"bytes32"},{"name":"account","type":"address","internalType":"address"}],"outputs":[],"stateMutability":"nonpayable"},{"type":"function","name":"hasRole","inputs":[{"name":"role","type":"bytes32","internalType":"bytes32"},{"name":"account","type":"address","internalType":"address"}],"outputs":[{"name":"","type":"bool","internalType":"bool"}],"stateMutability":"view"},{"type":"function","name":"initialize","inputs":[{"name":"admin","type":"address","internalType":"address"},{"name":"_reserveOracle","type":"address","internalType":"address"}],"outputs":[],"stateMutability":"nonpayable"},{"type":"function","name":"isFrozen","inputs":[{"name":"account","type":"address","internalType":"address"}],"outputs":[{"name":"","type":"bool","internalType":"bool"}],"stateMutability":"view"},{"type":"function","name":"isWhitelisted","inputs":[{"name":"account","type":"address","internalType":"address"}],"outputs":[{"name":"","type":"bool","internalType":"bool"}],"stateMutability":"view"},{"type":"function","name":"mint","inputs":[{"name":"to","type":"address","internalType":"address"},{"name":"amount","type":"uint256","internalType":"uint256"},{"name":"referenceId","type":"string","internalType":"string"}],"outputs":[],"stateMutability":"nonpayable"},{"type":"function","name":"name","inputs":[],"outputs":[{"name":"","type":"string","internalType":"string"}],"stateMutability":"view"},{"type":"function","name":"operator","inputs":[],"outputs":[{"name":"","type":"address","internalType":"address"}],"stateMutability":"view"},{"type":"function","name":"pause","inputs":[],"outputs":[],"stateMutability":"nonpayable"},{"type":"function","name":"paused","inputs":[],"outputs":[{"name":"","type":"bool","internalType":"bool"}],"stateMutability":"view"},{"type":"function","name":"proxiableUUID","inputs":[],"outputs":[{"name":"","type":"bytes32","internalType":"bytes32"}],"stateMutability":"view"},{"type":"function","name":"removeFromWhitelist","inputs":[{"name":"account","type":"address","internalType":"address"}],"outputs":[],"stateMutability":"nonpayable"},{"type":"function","name":"renounceRole","inputs":[{"name":"role","type":"bytes32","internalType":"bytes32"},{"name":"callerConfirmation","type":"address","internalType":"address"}],"outputs":[],"stateMutability":"nonpayable"},{"type":"function","name":"reserveOracle","inputs":[],"outputs":[{"name":"","type":"address","internalType":"contract IReserveOracle"}],"stateMutability":"view"},{"type":"function","name":"revokeRole","inputs":[{"name":"role","type":"bytes32","internalType":"bytes32"},{"name":"account","type":"address","internalType":"address"}],"outputs":[],"stateMutability":"nonpayable"},{"type":"function","name":"setCariSettlement","inputs":[{"name":"newSettlement","type":"address","internalType":"address"}],"outputs":[],"stateMutability":"nonpayable"},{"type":"function","name":"setOperator","inputs":[{"name":"newOperator","type":"address","internalType":"address"}],"outputs":[],"stateMutability":"nonpayable"},{"type":"function","name":"setReserveOracle","inputs":[{"name":"newOracle","type":"address","internalType":"address"}],"outputs":[],"stateMutability":"nonpayable"},{"type":"function","name":"setTravelRuleThreshold","inputs":[{"name":"newThreshold","type":"uint256","internalType":"uint256"}],"outputs":[],"stateMutability":"nonpayable"},{"type":"function","name":"settlementBurn","inputs":[{"name":"from","type":"address","internalType":"address"},{"name":"amount","type":"uint256","internalType":"uint256"},{"name":"settlementId","type":"bytes32","internalType":"bytes32"}],"outputs":[],"stateMutability":"nonpayable"},{"type":"function","name":"settlementMint","inputs":[{"name":"to","type":"address","internalType":"address"},{"name":"amount","type":"uint256","internalType":"uint256"},{"name":"settlementId","type":"bytes32","internalType":"bytes32"}],"outputs":[],"stateMutability":"nonpayable"},{"type":"function","name":"settlementReturn","inputs":[{"name":"to","type":"address","internalType":"address"},{"name":"amount","type":"uint256","internalType":"uint256"},{"name":"settlementId","type":"bytes32","internalType":"bytes32"}],"outputs":[],"stateMutability":"nonpayable"},{"type":"function","name":"supportsInterface","inputs":[{"name":"interfaceId","type":"bytes4","internalType":"bytes4"}],"outputs":[{"name":"","type":"bool","internalType":"bool"}],"stateMutability":"view"},{"type":"function","name":"symbol","inputs":[],"outputs":[{"name":"","type":"string","internalType":"string"}],"stateMutability":"view"},{"type":"function","name":"totalSupply","inputs":[],"outputs":[{"name":"","type":"uint256","internalType":"uint256"}],"stateMutability":"view"},{"type":"function","name":"transfer","inputs":[{"name":"to","type":"address","internalType":"address"},{"name":"value","type":"uint256","internalType":"uint256"}],"outputs":[{"name":"","type":"bool","internalType":"bool"}],"stateMutability":"nonpayable"},{"type":"function","name":"transferFrom","inputs":[{"name":"from","type":"address","internalType":"address"},{"name":"to","type":"address","internalType":"address"},{"name":"value","type":"uint256","internalType":"uint256"}],"outputs":[{"name":"","type":"bool","internalType":"bool"}],"stateMutability":"nonpayable"},{"type":"function","name":"transferWithTravelRule","inputs":[{"name":"to","type":"address","internalType":"address"},{"name":"amount","type":"uint256","internalType":"uint256"},{"name":"travelData","type":"tuple","internalType":"struct IMTokenizedDeposit.TravelRuleData","components":[{"name":"originatorHash","type":"bytes32","internalType":"bytes32"},{"name":"beneficiaryHash","type":"bytes32","internalType":"bytes32"},{"name":"originatorInstitution","type":"string","internalType":"string"},{"name":"beneficiaryInstitution","type":"string","internalType":"string"}]}],"outputs":[{"name":"","type":"bool","internalType":"bool"}],"stateMutability":"nonpayable"},{"type":"function","name":"travelRuleThreshold","inputs":[],"outputs":[{"name":"","type":"uint256","internalType":"uint256"}],"stateMutability":"view"},{"type":"function","name":"unfreezeAddress","inputs":[{"name":"account","type":"address","internalType":"address"}],"outputs":[],"stateMutability":"nonpayable"},{"type":"function","name":"unpause","inputs":[],"outputs":[],"stateMutability":"nonpayable"},{"type":"function","name":"upgradeToAndCall","inputs":[{"name":"newImplementation","type":"address","internalType":"address"},{"name":"data","type":"bytes","internalType":"bytes"}],"outputs":[],"stateMutability":"payable"},{"type":"function","name":"whitelistAddress","inputs":[{"name":"account","type":"address","internalType":"address"}],"outputs":[],"stateMutability":"nonpayable"},{"type":"event","name":"AddressFrozen","inputs":[{"name":"account","type":"address","indexed":true,"internalType":"address"}],"anonymous":false},{"type":"event","name":"AddressRemovedFromWhitelist","inputs":[{"name":"account","type":"address","indexed":true,"internalType":"address"}],"anonymous":false},{"type":"event","name":"AddressUnfrozen","inputs":[{"name":"account","type":"address","indexed":true,"internalType":"address"}],"anonymous":false},{"type":"event","name":"AddressWhitelisted","inputs":[{"name":"account","type":"address","indexed":true,"internalType":"address"}],"anonymous":false},{"type":"event","name":"Approval","inputs":[{"name":"owner","type":"address","indexed":true,"internalType":"address"},{"name":"spender","type":"address","indexed":true,"internalType":"address"},{"name":"value","type":"uint256","indexed":false,"internalType":"uint256"}],"anonymous":false},{"type":"event","name":"Burn","inputs":[{"name":"from","type":"address","indexed":true,"internalType":"address"},{"name":"amount","type":"uint256","indexed":false,"internalType":"uint256"},{"name":"referenceId","type":"string","indexed":false,"internalType":"string"}],"anonymous":false},{"type":"event","name":"CariSettlementUpdated","inputs":[{"name":"oldSettlement","type":"address","indexed":true,"internalType":"address"},{"name":"newSettlement","type":"address","indexed":true,"internalType":"address"}],"anonymous":false},{"type":"event","name":"ForcedTransfer","inputs":[{"name":"from","type":"address","indexed":true,"internalType":"address"},{"name":"to","type":"address","indexed":true,"internalType":"address"},{"name":"amount","type":"uint256","indexed":false,"internalType":"uint256"},{"name":"reason","type":"string","indexed":false,"internalType":"string"}],"anonymous":false},{"type":"event","name":"Initialized","inputs":[{"name":"version","type":"uint64","indexed":false,"internalType":"uint64"}],"anonymous":false},{"type":"event","name":"Mint","inputs":[{"name":"to","type":"address","indexed":true,"internalType":"address"},{"name":"amount","type":"uint256","indexed":false,"internalType":"uint256"},{"name":"referenceId","type":"string","indexed":false,"internalType":"string"}],"anonymous":false},{"type":"event","name":"OperatorUpdated","inputs":[{"name":"oldOperator","type":"address","indexed":true,"internalType":"address"},{"name":"newOperator","type":"address","indexed":true,"internalType":"address"}],"anonymous":false},{"type":"event","name":"Paused","inputs":[{"name":"account","type":"address","indexed":false,"internalType":"address"}],"anonymous":false},{"type":"event","name":"ReserveOracleUpdated","inputs":[{"name":"oldOracle","type":"address","indexed":true,"internalType":"address"},{"name":"newOracle","type":"address","indexed":true,"internalType":"address"}],"anonymous":false},{"type":"event","name":"RoleAdminChanged","inputs":[{"name":"role","type":"bytes32","indexed":true,"internalType":"bytes32"},{"name":"previousAdminRole","type":"bytes32","indexed":true,"internalType":"bytes32"},{"name":"newAdminRole","type":"bytes32","indexed":true,"internalType":"bytes32"}],"anonymous":false},{"type":"event","name":"RoleGranted","inputs":[{"name":"role","type":"bytes32","indexed":true,"internalType":"bytes32"},{"name":"account","type":"address","indexed":true,"internalType":"address"},{"name":"sender","type":"address","indexed":true,"internalType":"address"}],"anonymous":false},{"type":"event","name":"RoleRevoked","inputs":[{"name":"role","type":"bytes32","indexed":true,"internalType":"bytes32"},{"name":"account","type":"address","indexed":true,"internalType":"address"},{"name":"sender","type":"address","indexed":true,"internalType":"address"}],"anonymous":false},{"type":"event","name":"SettlementBurn","inputs":[{"name":"from","type":"address","indexed":true,"internalType":"address"},{"name":"amount","type":"uint256","indexed":false,"internalType":"uint256"},{"name":"settlementId","type":"bytes32","indexed":true,"internalType":"bytes32"}],"anonymous":false},{"type":"event","name":"SettlementMint","inputs":[{"name":"to","type":"address","indexed":true,"internalType":"address"},{"name":"amount","type":"uint256","indexed":false,"internalType":"uint256"},{"name":"settlementId","type":"bytes32","indexed":true,"internalType":"bytes32"}],"anonymous":false},{"type":"event","name":"SettlementReturn","inputs":[{"name":"to","type":"address","indexed":true,"internalType":"address"},{"name":"amount","type":"uint256","indexed":false,"internalType":"uint256"},{"name":"settlementId","type":"bytes32","indexed":true,"internalType":"bytes32"}],"anonymous":false},{"type":"event","name":"Transfer","inputs":[{"name":"from","type":"address","indexed":true,"internalType":"address"},{"name":"to","type":"address","indexed":true,"internalType":"address"},{"name":"value","type":"uint256","indexed":false,"internalType":"uint256"}],"anonymous":false},{"type":"event","name":"TravelRuleThresholdUpdated","inputs":[{"name":"oldThreshold","type":"uint256","indexed":false,"internalType":"uint256"},{"name":"newThreshold","type":"uint256","indexed":false,"internalType":"uint256"}],"anonymous":false},{"type":"event","name":"TravelRuleTransfer","inputs":[{"name":"from","type":"address","indexed":true,"internalType":"address"},{"name":"to","type":"address","indexed":true,"internalType":"address"},{"name":"amount","type":"uint256","indexed":false,"internalType":"uint256"},{"name":"originatorHash","type":"bytes32","indexed":false,"internalType":"bytes32"},{"name":"beneficiaryHash","type":"bytes32","indexed":false,"internalType":"bytes32"}],"anonymous":false},{"type":"event","name":"Unpaused","inputs":[{"name":"account","type":"address","indexed":false,"internalType":"address"}],"anonymous":false},{"type":"event","name":"Upgraded","inputs":[{"name":"implementation","type":"address","indexed":true,"internalType":"address"}],"anonymous":false},{"type":"error","name":"AccessControlBadConfirmation","inputs":[]},{"type":"error","name":"AccessControlUnauthorizedAccount","inputs":[{"name":"account","type":"address","internalType":"address"},{"name":"neededRole","type":"bytes32","internalType":"bytes32"}]},{"type":"error","name":"AccountFrozen","inputs":[{"name":"account","type":"address","internalType":"address"}]},{"type":"error","name":"AddressEmptyCode","inputs":[{"name":"target","type":"address","internalType":"address"}]},{"type":"error","name":"ERC1967InvalidImplementation","inputs":[{"name":"implementation","type":"address","internalType":"address"}]},{"type":"error","name":"ERC1967NonPayable","inputs":[]},{"type":"error","name":"ERC20InsufficientAllowance","inputs":[{"name":"spender","type":"address","internalType":"address"},{"name":"allowance","type":"uint256","internalType":"uint256"},{"name":"needed","type":"uint256","internalType":"uint256"}]},{"type":"error","name":"ERC20InsufficientBalance","inputs":[{"name":"sender","type":"address","internalType":"address"},{"name":"balance","type":"uint256","internalType":"uint256"},{"name":"needed","type":"uint256","internalType":"uint256"}]},{"type":"error","name":"ERC20InvalidApprover","inputs":[{"name":"approver","type":"address","internalType":"address"}]},{"type":"error","name":"ERC20InvalidReceiver","inputs":[{"name":"receiver","type":"address","internalType":"address"}]},{"type":"error","name":"ERC20InvalidSender","inputs":[{"name":"sender","type":"address","internalType":"address"}]},{"type":"error","name":"ERC20InvalidSpender","inputs":[{"name":"spender","type":"address","internalType":"address"}]},{"type":"error","name":"EnforcedPause","inputs":[]},{"type":"error","name":"ExpectedPause","inputs":[]},{"type":"error","name":"FailedCall","inputs":[]},{"type":"error","name":"InvalidInitialization","inputs":[]},{"type":"error","name":"NotInitializing","inputs":[]},{"type":"error","name":"NotWhitelisted","inputs":[{"name":"account","type":"address","internalType":"address"}]},{"type":"error","name":"ReentrancyGuardReentrantCall","inputs":[]},{"type":"error","name":"ReserveAttestationStale","inputs":[]},{"type":"error","name":"ReserveBackingInsufficient","inputs":[{"name":"supplyAfterMint","type":"uint256","internalType":"uint256"},{"name":"totalReserves","type":"uint256","internalType":"uint256"}]},{"type":"error","name":"ReserveOracleNotSet","inputs":[]},{"type":"error","name":"TravelRuleRequired","inputs":[{"name":"amount","type":"uint256","internalType":"uint256"},{"name":"threshold","type":"uint256","internalType":"uint256"}]},{"type":"error","name":"UUPSUnauthorizedCallContext","inputs":[]},{"type":"error","name":"UUPSUnsupportedProxiableUUID","inputs":[{"name":"slot","type":"bytes32","internalType":"bytes32"}]},{"type":"error","name":"ZeroAddress","inputs":[]},{"type":"error","name":"ZeroAmount","inputs":[]}],"bytecode":{"object":"0x60a060405230608052348015610013575f80fd5b5060017f9b779b17422d0df92223018b32b4d1fa46e071723d6817e2486d003becc55f0055610040610045565b6100f7565b7ff0c57e16840df040f15088dc2f81fe391c3923bec73e23a9662efc9c229c6a00805468010000000000000000900460ff16156100955760405163f92ee8a960e01b815260040160405180910390fd5b80546001600160401b03908116146100f45780546001600160401b0319166001600160401b0390811782556040519081527fc7f505b2f371ae2175ee4913f4499e1f2633a7b5936321eed1cdaeb6115181d29060200160405180910390a15b50565b608051612daf61011d5f395f8181611c8901528181611cb20152611e130152612daf5ff3fe6080604052600436106102d9575f3560e01c8063816bc90b11610189578063bfb80547116100d8578063da98725911610092578063e63ab1e91161006d578063e63ab1e9146108f2578063ee20982414610912578063f5b541a614610931578063f72c0d8b14610964575f80fd5b8063da9872591461087d578063dd62ed3e1461089c578063e5839836146108bb575f80fd5b8063bfb80547146107c2578063cfa5cc1d146107e1578063d3fc986414610800578063d518c28b1461081f578063d53913931461083e578063d547741f1461085e575f80fd5b8063a217fddf11610143578063ad3cb1cc1161011e578063ad3cb1cc14610734578063b3ab15fb14610764578063ba9cf01d14610783578063bfb0fb86146107a3575f80fd5b8063a217fddf146106ed578063a63b3f2e14610700578063a9059cbb14610715575f80fd5b8063816bc90b1461064a5780638456cb5914610668578063890214561461067c5780638ab1d6811461069b57806391d14854146106ba57806395d89b41146106d9575f80fd5b806336568abe1161024557806351e946d5116101ff5780635c975abb116101da5780635c975abb146105a957806366002875146105cc57806370a08231146105eb5780637ed90e071461062b575f80fd5b806351e946d51461054557806352d1902d14610564578063570ca73514610578575f80fd5b806336568abe1461048a5780633af32abf146104a95780633f4ba83a146104e057806341566585146104f4578063485cc955146105135780634f1ef28614610532575f80fd5b806323b872dd1161029657806323b872dd146103d3578063248a9ca3146103f2578063282c51f3146104115780632b702214146104315780632f2ff15d14610450578063313ce5671461046f575f80fd5b806301ffc9a7146102dd578063062d3bd71461031157806306fdde031461033f578063095ea7b31461036057806315f570dc1461037f57806318160ddd146103a0575b5f80fd5b3480156102e8575f80fd5b506102fc6102f7366004612696565b610997565b60405190151581526020015b60405180910390f35b34801561031c575f80fd5b506103315f80516020612c9983398151915281565b604051908152602001610308565b34801561034a575f80fd5b506103536109cd565b60405161030891906126bd565b34801561036b575f80fd5b506102fc61037a36600461270d565b610a8d565b34801561038a575f80fd5b5061039e61039936600461277a565b610aa4565b005b3480156103ab575f80fd5b507f52c63247e1f47db19d5ce0460030c497f067ca4cebf71ba98eeadabe20bace0254610331565b3480156103de575f80fd5b506102fc6103ed3660046127d0565b610b57565b3480156103fd575f80fd5b5061033161040c36600461280a565b610b7c565b34801561041c575f80fd5b506103315f80516020612c1983398151915281565b34801561043c575f80fd5b506102fc61044b366004612821565b610b9c565b34801561045b575f80fd5b5061039e61046a36600461287a565b610c23565b34801561047a575f80fd5b5060405160068152602001610308565b348015610495575f80fd5b5061039e6104a436600461287a565b610c45565b3480156104b4575f80fd5b506102fc6104c33660046128a4565b6001600160a01b03165f9081526001602052604090205460ff1690565b3480156104eb575f80fd5b5061039e610c7d565b3480156104ff575f80fd5b5061039e61050e3660046128a4565b610c9f565b34801561051e575f80fd5b5061039e61052d3660046128bd565b610d2c565b61039e6105403660046128f9565b610f13565b348015610550575f80fd5b5061039e61055f3660046128a4565b610f32565b34801561056f575f80fd5b50610331610f95565b348015610583575f80fd5b506005546001600160a01b03165b6040516001600160a01b039091168152602001610308565b3480156105b4575f80fd5b505f80516020612d198339815191525460ff166102fc565b3480156105d7575f80fd5b5061039e6105e636600461280a565b610fb0565b3480156105f6575f80fd5b506103316106053660046128a4565b6001600160a01b03165f9081525f80516020612c39833981519152602052604090205490565b348015610636575f80fd5b5061039e6106453660046128a4565b611000565b348015610655575f80fd5b505f54610591906001600160a01b031681565b348015610673575f80fd5b5061039e6110d4565b348015610687575f80fd5b5061039e6106963660046129bd565b6110f3565b3480156106a6575f80fd5b5061039e6106b53660046128a4565b61120a565b3480156106c5575f80fd5b506102fc6106d436600461287a565b61126a565b3480156106e4575f80fd5b506103536112a0565b3480156106f8575f80fd5b506103315f81565b34801561070b575f80fd5b5061033160035481565b348015610720575f80fd5b506102fc61072f36600461270d565b6112de565b34801561073f575f80fd5b50610353604051806040016040528060058152602001640352e302e360dc1b81525081565b34801561076f575f80fd5b5061039e61077e3660046128a4565b6112eb565b34801561078e575f80fd5b506103315f80516020612c5983398151915281565b3480156107ae575f80fd5b5061039e6107bd3660046128a4565b611436565b3480156107cd575f80fd5b5061039e6107dc3660046128a4565b6114b7565b3480156107ec575f80fd5b5061039e6107fb366004612a27565b611517565b34801561080b575f80fd5b5061039e61081a36600461277a565b6115e9565b34801561082a575f80fd5b50600454610591906001600160a01b031681565b348015610849575f80fd5b506103315f80516020612cd983398151915281565b348015610869575f80fd5b5061039e61087836600461287a565b611733565b348015610888575f80fd5b5061039e610897366004612a27565b61174f565b3480156108a7575f80fd5b506103316108b63660046128bd565b611893565b3480156108c6575f80fd5b506102fc6108d53660046128a4565b6001600160a01b03165f9081526002602052604090205460ff1690565b3480156108fd575f80fd5b506103315f80516020612cb983398151915281565b34801561091d575f80fd5b5061039e61092c366004612a27565b6118dc565b34801561093c575f80fd5b506103317f97667070c54ef182b0f5858b034beac1b6f3089aa2d3188bb1e8929f4fa9b92981565b34801561096f575f80fd5b506103317f189ab7a9244df0848122154315af71fe140f3db0fe014031783b0946b8c9d2e381565b5f6001600160e01b03198216637965db0b60e01b14806109c757506301ffc9a760e01b6001600160e01b03198316145b92915050565b7f52c63247e1f47db19d5ce0460030c497f067ca4cebf71ba98eeadabe20bace0380546060915f80516020612c3983398151915291610a0b90612a57565b80601f0160208091040260200160405190810160405280929190818152602001828054610a3790612a57565b8015610a825780601f10610a5957610100808354040283529160200191610a82565b820191905f5260205f20905b815481529060010190602001808311610a6557829003601f168201915b505050505091505090565b5f33610a9a818585611969565b5060019392505050565b5f80516020612c19833981519152610abb81611976565b610ac3611980565b610acb6119b2565b835f03610aeb57604051631f2a200560e01b815260040160405180910390fd5b610af585856119cd565b846001600160a01b03167f47e772fda56eb54ab211642ce5421882c49fc2b7033455982af14588ae4207ff858585604051610b3293929190612a8f565b60405180910390a2610b5060015f80516020612d3983398151915255565b5050505050565b5f33610b64858285611a01565b610b6f858585611a5f565b60019150505b9392505050565b5f9081525f80516020612cf9833981519152602052604090206001015490565b5f610ba5611980565b610bad6119b2565b610bb8338585611a5f565b6040805184815283356020808301919091528401358183015290516001600160a01b0386169133917fe95144bdd2ad756580ed33b138abfd3da0dec05622a89f82d3155a18481a3c8b9181900360600190a3506001610b7560015f80516020612d3983398151915255565b610c2c82610b7c565b610c3581611976565b610c3f8383611abc565b50505050565b6001600160a01b0381163314610c6e5760405163334bd91960e11b815260040160405180910390fd5b610c788282611b64565b505050565b5f80516020612cb9833981519152610c9481611976565b610c9c611bdd565b50565b5f80516020612c99833981519152610cb681611976565b6001600160a01b038216610cdd5760405163d92e233d60e01b815260040160405180910390fd5b6001600160a01b0382165f818152600160208190526040808320805460ff1916909217909155517f4f783c179409b4127238bc9c990bc99b9a651666a0d20b51d6c42849eb88466d9190a25050565b5f610d35611c3c565b805490915060ff600160401b820416159067ffffffffffffffff165f81158015610d5c5750825b90505f8267ffffffffffffffff166001148015610d785750303b155b905081158015610d86575080155b15610da45760405163f92ee8a960e01b815260040160405180910390fd5b845467ffffffffffffffff191660011785558315610dce57845460ff60401b1916600160401b1785555b6001600160a01b038716610df55760405163d92e233d60e01b815260040160405180910390fd5b610e34604051806060016040528060218152602001612d5960219139604051806040016040528060058152602001641b5d1554d160da1b815250611c64565b610e3c611c76565b610e44611c76565b610e4e5f88611abc565b50610e797f189ab7a9244df0848122154315af71fe140f3db0fe014031783b0946b8c9d2e388611abc565b50610e915f80516020612cb983398151915288611abc565b506001600160a01b03861615610ebc575f80546001600160a01b0319166001600160a01b0388161790555b63b2d05e006003558315610f0a57845460ff60401b19168555604051600181527fc7f505b2f371ae2175ee4913f4499e1f2633a7b5936321eed1cdaeb6115181d29060200160405180910390a15b50505050505050565b610f1b611c7e565b610f2482611d22565b610f2e8282611d4c565b5050565b5f80516020612c99833981519152610f4981611976565b6001600160a01b0382165f81815260026020526040808220805460ff19166001179055517f90811a8edd3b3c17eeaefffc17f639cc69145d41a359c9843994dc25382036909190a25050565b5f610f9e611e08565b505f80516020612c7983398151915290565b5f610fba81611976565b600380549083905560408051828152602081018590527f1f05fb6a80d10460ee898cd6bfc85864992e1fb5b8e4c6aaf8059bc37306fd49910160405180910390a1505050565b5f61100a81611976565b6001600160a01b0382166110315760405163d92e233d60e01b815260040160405180910390fd5b6004546001600160a01b0316801561105c5761105a5f80516020612c5983398151915282611b64565b505b600480546001600160a01b0319166001600160a01b03851617905561108e5f80516020612c5983398151915284611abc565b50826001600160a01b0316816001600160a01b03167fb2bd56a446c329f8579612ecbe9e73ee183dbba30fe25bd2d8017282f83fc8eb60405160405180910390a3505050565b5f80516020612cb98339815191526110eb81611976565b610c9c611e51565b5f80516020612c9983398151915261110a81611976565b611112611980565b61111a6119b2565b6001600160a01b038616158061113757506001600160a01b038516155b156111555760405163d92e233d60e01b815260040160405180910390fd5b835f0361117557604051631f2a200560e01b815260040160405180910390fd5b6004805460ff60a01b1916600160a01b179055611193868686611a5f565b6004805460ff60a01b191690556040516001600160a01b0380871691908816907fbb53097141337c38a36fed7fae913304cd0c540e1200dbb4c8c1cee707f9f2c2906111e490889088908890612a8f565b60405180910390a361120260015f80516020612d3983398151915255565b505050505050565b5f80516020612c9983398151915261122181611976565b6001600160a01b0382165f81815260016020526040808220805460ff19169055517f535611fb62fa2a833988f283b779e417e996813e44046f521d76c17b5943b08c9190a25050565b5f9182525f80516020612cf9833981519152602090815260408084206001600160a01b0393909316845291905290205460ff1690565b7f52c63247e1f47db19d5ce0460030c497f067ca4cebf71ba98eeadabe20bace0480546060915f80516020612c3983398151915291610a0b90612a57565b5f33610a9a818585611a5f565b5f6112f581611976565b6001600160a01b03821661131c5760405163d92e233d60e01b815260040160405180910390fd5b6005546001600160a01b0316801561138a576113455f80516020612cd983398151915282611b64565b5061135d5f80516020612c1983398151915282611b64565b506113887f97667070c54ef182b0f5858b034beac1b6f3089aa2d3188bb1e8929f4fa9b92982611b64565b505b6113b47f97667070c54ef182b0f5858b034beac1b6f3089aa2d3188bb1e8929f4fa9b92984611abc565b506113cc5f80516020612cd983398151915284611abc565b506113e45f80516020612c1983398151915284611abc565b50600580546001600160a01b0319166001600160a01b0385811691821790925560405190918316907ffbe5b6cbafb274f445d7fed869dc77a838d8243a22c460de156560e8857cad03905f90a3505050565b5f61144081611976565b6001600160a01b0382166114675760405163d92e233d60e01b815260040160405180910390fd5b5f80546001600160a01b038481166001600160a01b0319831681178455604051919092169283917f0a72205daf2e9d39bd2e71978308c352c8094f5a30e463f95d30bdd32c885bca9190a3505050565b5f80516020612c998339815191526114ce81611976565b6001600160a01b0382165f81815260026020526040808220805460ff19169055517fc3776b472ebf54114339eec9e4dc924e7ce307a97f5c1ee72b6d474e6e5e8b7c9190a25050565b5f80516020612c5983398151915261152e81611976565b611536611980565b61153e6119b2565b6001600160a01b0384166115655760405163d92e233d60e01b815260040160405180910390fd5b825f0361158557604051631f2a200560e01b815260040160405180910390fd5b61158f8484611e99565b81846001600160a01b03167f44f409d21abc7f9595bbbf412d91df2d50a4a9aec94588e82955439ca68ff4c4856040516115cb91815260200190565b60405180910390a3610c3f60015f80516020612d3983398151915255565b5f80516020612cd983398151915261160081611976565b611608611980565b6116106119b2565b6001600160a01b0385166116375760405163d92e233d60e01b815260040160405180910390fd5b835f0361165757604051631f2a200560e01b815260040160405180910390fd5b6001600160a01b0385165f9081526001602052604090205460ff1661169f57604051636f8bf18b60e11b81526001600160a01b03861660048201526024015b60405180910390fd5b6001600160a01b0385165f9081526002602052604090205460ff16156116e3576040516327951b3f60e11b81526001600160a01b0386166004820152602401611696565b6116ec84611ecd565b6116f68585611e99565b846001600160a01b03167f85a66b9141978db9980f7e0ce3b468cebf4f7999f32b23091c5c03e798b1ba7a858585604051610b3293929190612a8f565b61173c82610b7c565b61174581611976565b610c3f8383611b64565b5f80516020612c5983398151915261176681611976565b61176e611980565b6117766119b2565b6001600160a01b03841661179d5760405163d92e233d60e01b815260040160405180910390fd5b825f036117bd57604051631f2a200560e01b815260040160405180910390fd5b6001600160a01b0384165f9081526001602052604090205460ff1661180057604051636f8bf18b60e11b81526001600160a01b0385166004820152602401611696565b6001600160a01b0384165f9081526002602052604090205460ff1615611844576040516327951b3f60e11b81526001600160a01b0385166004820152602401611696565b61184d83611ecd565b6118578484611e99565b81846001600160a01b03167ffb30da665ff0ab8e0782f11a8ae8430587ac6aaac5f8f2a9bcc59159a2c5d68f856040516115cb91815260200190565b6001600160a01b039182165f9081527f52c63247e1f47db19d5ce0460030c497f067ca4cebf71ba98eeadabe20bace016020908152604080832093909416825291909152205490565b5f80516020612c598339815191526118f381611976565b6118fb611980565b6119036119b2565b825f0361192357604051631f2a200560e01b815260040160405180910390fd5b61192d84846119cd565b81846001600160a01b03167f23c5fbfd2fa1dd51068a6caf2cda1c9218710f69831a4591a4ca97b38bbe2646856040516115cb91815260200190565b610c78838383600161205e565b610c9c8133612141565b5f80516020612d198339815191525460ff16156119b05760405163d93c066560e01b815260040160405180910390fd5b565b6119ba61217a565b60025f80516020612d3983398151915255565b6001600160a01b0382166119f657604051634b637e8f60e11b81525f6004820152602401611696565b610f2e825f836121a9565b5f611a0c8484611893565b90505f19811015610c3f5781811015611a5157604051637dc7a0d960e11b81526001600160a01b03841660048201526024810182905260448101839052606401611696565b610c3f84848484035f61205e565b6001600160a01b038316611a8857604051634b637e8f60e11b81525f6004820152602401611696565b6001600160a01b038216611ab15760405163ec442f0560e01b81525f6004820152602401611696565b610c788383836121a9565b5f5f80516020612cf9833981519152611ad5848461126a565b611b54575f848152602082815260408083206001600160a01b03871684529091529020805460ff19166001179055611b0a3390565b6001600160a01b0316836001600160a01b0316857f2f8788117e7eff1d82e926ec794901d17c78024a50270940304540a733656f0d60405160405180910390a460019150506109c7565b5f9150506109c7565b5092915050565b5f5f80516020612cf9833981519152611b7d848461126a565b15611b54575f848152602082815260408083206001600160a01b0387168085529252808320805460ff1916905551339287917ff6391f5c32d9c69d2a47ea670b442974b53935d1edc7fd64eb21e047a839171b9190a460019150506109c7565b611be56122f9565b5f80516020612d19833981519152805460ff191681557f5db9ee0a495bf2e6ff9c91a7834c1ba4fdd244a5e8aa4e537bd38aeae4b073aa335b6040516001600160a01b03909116815260200160405180910390a150565b5f807ff0c57e16840df040f15088dc2f81fe391c3923bec73e23a9662efc9c229c6a006109c7565b611c6c612328565b610f2e828261234d565b6119b0612328565b306001600160a01b037f0000000000000000000000000000000000000000000000000000000000000000161480611d0457507f00000000000000000000000000000000000000000000000000000000000000006001600160a01b0316611cf85f80516020612c79833981519152546001600160a01b031690565b6001600160a01b031614155b156119b05760405163703e46dd60e11b815260040160405180910390fd5b7f189ab7a9244df0848122154315af71fe140f3db0fe014031783b0946b8c9d2e3610f2e81611976565b816001600160a01b03166352d1902d6040518163ffffffff1660e01b8152600401602060405180830381865afa925050508015611da6575060408051601f3d908101601f19168201909252611da391810190612ac4565b60015b611dce57604051634c9c8ce360e01b81526001600160a01b0383166004820152602401611696565b5f80516020612c798339815191528114611dfe57604051632a87526960e21b815260048101829052602401611696565b610c78838361239d565b306001600160a01b037f000000000000000000000000000000000000000000000000000000000000000016146119b05760405163703e46dd60e11b815260040160405180910390fd5b611e59611980565b5f80516020612d19833981519152805460ff191660011781557f62e78cea01bee320cd4e420270b5ea74000d11b0c9f74754ebdbfc544b05a25833611c1e565b6001600160a01b038216611ec25760405163ec442f0560e01b81525f6004820152602401611696565b610f2e5f83836121a9565b5f546001600160a01b0316611ef557604051630ca2238360e11b815260040160405180910390fd5b5f546001600160a01b03166322e1dea9611f2d7f52c63247e1f47db19d5ce0460030c497f067ca4cebf71ba98eeadabe20bace025490565b836040518363ffffffff1660e01b8152600401611f54929190918252602082015260400190565b602060405180830381865afa158015611f6f573d5f803e3d5ffd5b505050506040513d601f19601f82011682018060405250810190611f939190612adb565b610c9c5780611fc07f52c63247e1f47db19d5ce0460030c497f067ca4cebf71ba98eeadabe20bace025490565b611fca9190612afa565b5f8054906101000a90046001600160a01b03166001600160a01b0316638f840ddd6040518163ffffffff1660e01b8152600401602060405180830381865afa158015612018573d5f803e3d5ffd5b505050506040513d601f19601f8201168201806040525081019061203c9190612ac4565b60405163c118a13960e01b815260048101929092526024820152604401611696565b5f80516020612c398339815191526001600160a01b0385166120955760405163e602df0560e01b81525f6004820152602401611696565b6001600160a01b0384166120be57604051634a1406b160e11b81525f6004820152602401611696565b6001600160a01b038086165f90815260018301602090815260408083209388168352929052208390558115610b5057836001600160a01b0316856001600160a01b03167f8c5be1e5ebec7d5bd14f71427d1e84f3dd0314c0f7b2291e5b200ac8c7c3b9258560405161213291815260200190565b60405180910390a35050505050565b61214b828261126a565b610f2e5760405163e2517d3f60e01b81526001600160a01b038216600482015260248101839052604401611696565b5f80516020612d39833981519152546002036119b057604051633ee5aeb560e01b815260040160405180910390fd5b6121b1611980565b600454600160a01b900460ff166122ee576001600160a01b03831615612258576001600160a01b0383165f9081526001602052604090205460ff1661221457604051636f8bf18b60e11b81526001600160a01b0384166004820152602401611696565b6001600160a01b0383165f9081526002602052604090205460ff1615612258576040516327951b3f60e11b81526001600160a01b0384166004820152602401611696565b6001600160a01b038216156122ee576001600160a01b0382165f9081526001602052604090205460ff166122aa57604051636f8bf18b60e11b81526001600160a01b0383166004820152602401611696565b6001600160a01b0382165f9081526002602052604090205460ff16156122ee576040516327951b3f60e11b81526001600160a01b0383166004820152602401611696565b610c788383836123f2565b5f80516020612d198339815191525460ff166119b057604051638dfc202b60e01b815260040160405180910390fd5b61233061252b565b6119b057604051631afcd79f60e31b815260040160405180910390fd5b612355612328565b5f80516020612c398339815191527f52c63247e1f47db19d5ce0460030c497f067ca4cebf71ba98eeadabe20bace0361238e8482612b5d565b5060048101610c3f8382612b5d565b6123a682612544565b6040516001600160a01b038316907fbc7cd75a20ee27fd9adebab32041f755214dbc6bffa90cc0225b39da2e5c2d3b905f90a28051156123ea57610c7882826125a7565b610f2e612640565b5f80516020612c398339815191526001600160a01b03841661242c5781816002015f8282546124219190612afa565b9091555061249c9050565b6001600160a01b0384165f908152602082905260409020548281101561247e5760405163391434e360e21b81526001600160a01b03861660048201526024810182905260448101849052606401611696565b6001600160a01b0385165f9081526020839052604090209083900390555b6001600160a01b0383166124ba5760028101805483900390556124d8565b6001600160a01b0383165f9081526020829052604090208054830190555b826001600160a01b0316846001600160a01b03167fddf252ad1be2c89b69c2b068fc378daa952ba7f163c4a11628f55a4df523b3ef8460405161251d91815260200190565b60405180910390a350505050565b5f612534611c3c565b54600160401b900460ff16919050565b806001600160a01b03163b5f0361257957604051634c9c8ce360e01b81526001600160a01b0382166004820152602401611696565b5f80516020612c7983398151915280546001600160a01b0319166001600160a01b0392909216919091179055565b60605f6125b4848461265f565b90508080156125d557505f3d11806125d557505f846001600160a01b03163b115b156125ea576125e2612672565b9150506109c7565b801561261457604051639996b31560e01b81526001600160a01b0385166004820152602401611696565b3d156126275761262261268b565b611b5d565b60405163d6bda27560e01b815260040160405180910390fd5b34156119b05760405163b398979f60e01b815260040160405180910390fd5b5f805f835160208501865af49392505050565b6040513d81523d5f602083013e3d602001810160405290565b6040513d5f823e3d81fd5b5f602082840312156126a6575f80fd5b81356001600160e01b031981168114610b75575f80fd5b602081525f82518060208401528060208501604085015e5f604082850101526040601f19601f83011684010191505092915050565b80356001600160a01b0381168114612708575f80fd5b919050565b5f806040838503121561271e575f80fd5b612727836126f2565b946020939093013593505050565b5f8083601f840112612745575f80fd5b50813567ffffffffffffffff81111561275c575f80fd5b602083019150836020828501011115612773575f80fd5b9250929050565b5f805f806060858703121561278d575f80fd5b612796856126f2565b935060208501359250604085013567ffffffffffffffff8111156127b8575f80fd5b6127c487828801612735565b95989497509550505050565b5f805f606084860312156127e2575f80fd5b6127eb846126f2565b92506127f9602085016126f2565b929592945050506040919091013590565b5f6020828403121561281a575f80fd5b5035919050565b5f805f60608486031215612833575f80fd5b61283c846126f2565b925060208401359150604084013567ffffffffffffffff81111561285e575f80fd5b84016080818703121561286f575f80fd5b809150509250925092565b5f806040838503121561288b575f80fd5b8235915061289b602084016126f2565b90509250929050565b5f602082840312156128b4575f80fd5b610b75826126f2565b5f80604083850312156128ce575f80fd5b6128d7836126f2565b915061289b602084016126f2565b634e487b7160e01b5f52604160045260245ffd5b5f806040838503121561290a575f80fd5b612913836126f2565b9150602083013567ffffffffffffffff81111561292e575f80fd5b8301601f8101851361293e575f80fd5b803567ffffffffffffffff811115612958576129586128e5565b604051601f8201601f19908116603f0116810167ffffffffffffffff81118282101715612987576129876128e5565b60405281815282820160200187101561299e575f80fd5b816020840160208301375f602083830101528093505050509250929050565b5f805f805f608086880312156129d1575f80fd5b6129da866126f2565b94506129e8602087016126f2565b935060408601359250606086013567ffffffffffffffff811115612a0a575f80fd5b612a1688828901612735565b969995985093965092949392505050565b5f805f60608486031215612a39575f80fd5b612a42846126f2565b95602085013595506040909401359392505050565b600181811c90821680612a6b57607f821691505b602082108103612a8957634e487b7160e01b5f52602260045260245ffd5b50919050565b83815260406020820152816040820152818360608301375f818301606090810191909152601f909201601f1916010192915050565b5f60208284031215612ad4575f80fd5b5051919050565b5f60208284031215612aeb575f80fd5b81518015158114610b75575f80fd5b808201808211156109c757634e487b7160e01b5f52601160045260245ffd5b601f821115610c7857805f5260205f20601f840160051c81016020851015612b3e5750805b601f840160051c820191505b81811015610b50575f8155600101612b4a565b815167ffffffffffffffff811115612b7757612b776128e5565b612b8b81612b858454612a57565b84612b19565b6020601f821160018114612bbd575f8315612ba65750848201515b5f19600385901b1c1916600184901b178455610b50565b5f84815260208120601f198516915b82811015612bec5787850151825560209485019460019092019101612bcc565b5084821015612c0957868401515f19600387901b60f8161c191681555b50505050600190811b0190555056fe3c11d16cbaffd01df69ce1c404f6340ee057498f5f00246190ea54220576a84852c63247e1f47db19d5ce0460030c497f067ca4cebf71ba98eeadabe20bace00300f9ae985dc711960f7a4d1dd013f9c19ecf40bff149522ab7523b2187a3846360894a13ba1a3210667c828492db98dca3e2076cc3735a920a3ca505d382bbc442a94f1a1fac79af32856af2a64f63648cfa2ef3b98610a5bb7cbec4cee698565d7a28e3265b37a6474929f336521b332c1681b933f6cb9f3376673440d862a9f2df0fed2c77648de5860a4cc508cd0818c85b8b8a1ab4ceeef8d981c8956a602dd7bc7dec4dceedda775e58dd541e08a116c6c53815c0bd028192f7b626800cd5ed15c6e187e77e9aee88184c21f4f2182ab5827cb3b7e07fbedcd63f033009b779b17422d0df92223018b32b4d1fa46e071723d6817e2486d003becc55f004d26542042616e6b20546f6b656e697a6564204465706f73697420284361726929a26469706673582212203be5b3f90052555ca392dbd57394b8abd1ad81c3adff83f68ffdc7c720632ef664736f6c634300081a0033","linkReferences":{}},"methodIdentifiers":{"BURNER_ROLE()":"282c51f3","COMPLIANCE_ROLE()":"062d3bd7","DEFAULT_ADMIN_ROLE()":"a217fddf","MINTER_ROLE()":"d5391393","OPERATOR_ROLE()":"f5b541a6","PAUSER_ROLE()":"e63ab1e9","SETTLEMENT_ROLE()":"ba9cf01d","UPGRADER_ROLE()":"f72c0d8b","UPGRADE_INTERFACE_VERSION()":"ad3cb1cc","allowance(address,address)":"dd62ed3e","approve(address,uint256)":"095ea7b3","balanceOf(address)":"70a08231","burn(address,uint256,string)":"15f570dc","cariSettlement()":"d518c28b","decimals()":"313ce567","forceTransfer(address,address,uint256,string)":"89021456","freezeAddress(address)":"51e946d5","getRoleAdmin(bytes32)":"248a9ca3","grantRole(bytes32,address)":"2f2ff15d","hasRole(bytes32,address)":"91d14854","initialize(address,address)":"485cc955","isFrozen(address)":"e5839836","isWhitelisted(address)":"3af32abf","mint(address,uint256,string)":"d3fc9864","name()":"06fdde03","operator()":"570ca735","pause()":"8456cb59","paused()":"5c975abb","proxiableUUID()":"52d1902d","removeFromWhitelist(address)":"8ab1d681","renounceRole(bytes32,address)":"36568abe","reserveOracle()":"816bc90b","revokeRole(bytes32,address)":"d547741f","setCariSettlement(address)":"7ed90e07","setOperator(address)":"b3ab15fb","setReserveOracle(address)":"bfb0fb86","setTravelRuleThreshold(uint256)":"66002875","settlementBurn(address,uint256,bytes32)":"ee209824","settlementMint(address,uint256,bytes32)":"da987259","settlementReturn(address,uint256,bytes32)":"cfa5cc1d","supportsInterface(bytes4)":"01ffc9a7","symbol()":"95d89b41","totalSupply()":"18160ddd","transfer(address,uint256)":"a9059cbb","transferFrom(address,address,uint256)":"23b872dd","transferWithTravelRule(address,uint256,(bytes32,bytes32,string,string))":"2b702214","travelRuleThreshold()":"a63b3f2e","unfreezeAddress(address)":"bfb80547","unpause()":"3f4ba83a","upgradeToAndCall(address,bytes)":"4f1ef286","whitelistAddress(address)":"41566585"},"id":1}