{"abi":[{"type":"constructor","inputs":[],"stateMutability":"nonpayable"},{"type":"function","name":"DEFAULT_ADMIN_ROLE","inputs":[],"outputs":[{"name":"","type":"bytes32","internalType":"bytes32"}],"stateMutability":"view"},{"type":"function","name":"ORACLE_UPDATER_ROLE","inputs":[],"outputs":[{"name":"","type":"bytes32","internalType":"bytes32"}],"stateMutability":"view"},{"type":"function","name":"UPGRADER_ROLE","inputs":[],"outputs":[{"name":"","type":"bytes32","internalType":"bytes32"}],"stateMutability":"view"},{"type":"function","name":"UPGRADE_INTERFACE_VERSION","inputs":[],"outputs":[{"name":"","type":"string","internalType":"string"}],"stateMutability":"view"},{"type":"function","name":"getComplianceRecord","inputs":[{"name":"account","type":"address","internalType":"address"}],"outputs":[{"name":"","type":"tuple","internalType":"struct CariComplianceOracle.ComplianceRecord","components":[{"name":"kycStatus","type":"uint8","internalType":"enum CariComplianceOracle.KYCStatus"},{"name":"riskLevel","type":"uint8","internalType":"enum CariComplianceOracle.RiskLevel"},{"name":"lastScreenedAt","type":"uint256","internalType":"uint256"},{"name":"kycExpiresAt","type":"uint256","internalType":"uint256"},{"name":"travelRuleEligible","type":"bool","internalType":"bool"},{"name":"jurisdictionCode","type":"string","internalType":"string"}]}],"stateMutability":"view"},{"type":"function","name":"getRoleAdmin","inputs":[{"name":"role","type":"bytes32","internalType":"bytes32"}],"outputs":[{"name":"","type":"bytes32","internalType":"bytes32"}],"stateMutability":"view"},{"type":"function","name":"grantRole","inputs":[{"name":"role","type":"bytes32","internalType":"bytes32"},{"name":"account","type":"address","internalType":"address"}],"outputs":[],"stateMutability":"nonpayable"},{"type":"function","name":"hasRole","inputs":[{"name":"role","type":"bytes32","internalType":"bytes32"},{"name":"account","type":"address","internalType":"address"}],"outputs":[{"name":"","type":"bool","internalType":"bool"}],"stateMutability":"view"},{"type":"function","name":"initialize","inputs":[{"name":"admin","type":"address","internalType":"address"}],"outputs":[],"stateMutability":"nonpayable"},{"type":"function","name":"isCompliant","inputs":[{"name":"account","type":"address","internalType":"address"}],"outputs":[{"name":"","type":"bool","internalType":"bool"}],"stateMutability":"view"},{"type":"function","name":"proxiableUUID","inputs":[],"outputs":[{"name":"","type":"bytes32","internalType":"bytes32"}],"stateMutability":"view"},{"type":"function","name":"renounceRole","inputs":[{"name":"role","type":"bytes32","internalType":"bytes32"},{"name":"callerConfirmation","type":"address","internalType":"address"}],"outputs":[],"stateMutability":"nonpayable"},{"type":"function","name":"revokeRole","inputs":[{"name":"role","type":"bytes32","internalType":"bytes32"},{"name":"account","type":"address","internalType":"address"}],"outputs":[],"stateMutability":"nonpayable"},{"type":"function","name":"supportsInterface","inputs":[{"name":"interfaceId","type":"bytes4","internalType":"bytes4"}],"outputs":[{"name":"","type":"bool","internalType":"bool"}],"stateMutability":"view"},{"type":"function","name":"updateCompliance","inputs":[{"name":"account","type":"address","internalType":"address"},{"name":"kycStatus","type":"uint8","internalType":"enum CariComplianceOracle.KYCStatus"},{"name":"riskLevel","type":"uint8","internalType":"enum CariComplianceOracle.RiskLevel"},{"name":"kycExpiresAt","type":"uint256","internalType":"uint256"},{"name":"jurisdictionCode","type":"string","internalType":"string"}],"outputs":[],"stateMutability":"nonpayable"},{"type":"function","name":"updateTravelRuleStatus","inputs":[{"name":"account","type":"address","internalType":"address"},{"name":"eligible","type":"bool","internalType":"bool"}],"outputs":[],"stateMutability":"nonpayable"},{"type":"function","name":"upgradeToAndCall","inputs":[{"name":"newImplementation","type":"address","internalType":"address"},{"name":"data","type":"bytes","internalType":"bytes"}],"outputs":[],"stateMutability":"payable"},{"type":"event","name":"ComplianceUpdated","inputs":[{"name":"account","type":"address","indexed":true,"internalType":"address"},{"name":"kycStatus","type":"uint8","indexed":false,"internalType":"enum CariComplianceOracle.KYCStatus"},{"name":"riskLevel","type":"uint8","indexed":false,"internalType":"enum CariComplianceOracle.RiskLevel"},{"name":"lastScreenedAt","type":"uint256","indexed":false,"internalType":"uint256"}],"anonymous":false},{"type":"event","name":"Initialized","inputs":[{"name":"version","type":"uint64","indexed":false,"internalType":"uint64"}],"anonymous":false},{"type":"event","name":"RoleAdminChanged","inputs":[{"name":"role","type":"bytes32","indexed":true,"internalType":"bytes32"},{"name":"previousAdminRole","type":"bytes32","indexed":true,"internalType":"bytes32"},{"name":"newAdminRole","type":"bytes32","indexed":true,"internalType":"bytes32"}],"anonymous":false},{"type":"event","name":"RoleGranted","inputs":[{"name":"role","type":"bytes32","indexed":true,"internalType":"bytes32"},{"name":"account","type":"address","indexed":true,"internalType":"address"},{"name":"sender","type":"address","indexed":true,"internalType":"address"}],"anonymous":false},{"type":"event","name":"RoleRevoked","inputs":[{"name":"role","type":"bytes32","indexed":true,"internalType":"bytes32"},{"name":"account","type":"address","indexed":true,"internalType":"address"},{"name":"sender","type":"address","indexed":true,"internalType":"address"}],"anonymous":false},{"type":"event","name":"TravelRuleStatusUpdated","inputs":[{"name":"account","type":"address","indexed":true,"internalType":"address"},{"name":"eligible","type":"bool","indexed":false,"internalType":"bool"}],"anonymous":false},{"type":"event","name":"Upgraded","inputs":[{"name":"implementation","type":"address","indexed":true,"internalType":"address"}],"anonymous":false},{"type":"error","name":"AccessControlBadConfirmation","inputs":[]},{"type":"error","name":"AccessControlUnauthorizedAccount","inputs":[{"name":"account","type":"address","internalType":"address"},{"name":"neededRole","type":"bytes32","internalType":"bytes32"}]},{"type":"error","name":"AddressEmptyCode","inputs":[{"name":"target","type":"address","internalType":"address"}]},{"type":"error","name":"ERC1967InvalidImplementation","inputs":[{"name":"implementation","type":"address","internalType":"address"}]},{"type":"error","name":"ERC1967NonPayable","inputs":[]},{"type":"error","name":"FailedCall","inputs":[]},{"type":"error","name":"InvalidInitialization","inputs":[]},{"type":"error","name":"NotInitializing","inputs":[]},{"type":"error","name":"UUPSUnauthorizedCallContext","inputs":[]},{"type":"error","name":"UUPSUnsupportedProxiableUUID","inputs":[{"name":"slot","type":"bytes32","internalType":"bytes32"}]}],"bytecode":{"object":"0x60a060405230608052348015610013575f80fd5b5061001c610021565b6100d3565b7ff0c57e16840df040f15088dc2f81fe391c3923bec73e23a9662efc9c229c6a00805468010000000000000000900460ff16156100715760405163f92ee8a960e01b815260040160405180910390fd5b80546001600160401b03908116146100d05780546001600160401b0319166001600160401b0390811782556040519081527fc7f505b2f371ae2175ee4913f4499e1f2633a7b5936321eed1cdaeb6115181d29060200160405180910390a15b50565b6080516115c56100f95f395f8181610c5201528181610c7b0152610de301526115c55ff3fe6080604052600436106100fa575f3560e01c806352d1902d11610092578063ad3cb1cc11610062578063ad3cb1cc14610282578063c4d66de8146102bf578063c997f733146102de578063d547741f146102fd578063f72c0d8b1461031c575f80fd5b806352d1902d1461021d57806391d1485414610231578063a200e5d014610250578063a217fddf1461026f575f80fd5b80632f2ff15d116100cd5780632f2ff15d146101a057806336568abe146101bf5780634f1ef286146101de578063513a8211146101f1575f80fd5b806301ffc9a7146100fe5780631732d33014610132578063248a9ca3146101605780632c4e13ef1461017f575b5f80fd5b348015610109575f80fd5b5061011d61011836600461106f565b61034f565b60405190151581526020015b60405180910390f35b34801561013d575f80fd5b506101525f8051602061153083398151915281565b604051908152602001610129565b34801561016b575f80fd5b5061015261017a366004611096565b610385565b34801561018a575f80fd5b5061019e6101993660046110d4565b6103a5565b005b3480156101ab575f80fd5b5061019e6101ba366004611180565b610553565b3480156101ca575f80fd5b5061019e6101d9366004611180565b610575565b61019e6101ec3660046111be565b6105ad565b3480156101fc575f80fd5b5061021061020b366004611282565b6105cc565b60405161012991906112f9565b348015610228575f80fd5b50610152610743565b34801561023c575f80fd5b5061011d61024b366004611180565b61075e565b34801561025b575f80fd5b5061011d61026a366004611282565b610794565b34801561027a575f80fd5b506101525f81565b34801561028d575f80fd5b506102b2604051806040016040528060058152602001640352e302e360dc1b81525081565b6040516101299190611365565b3480156102ca575f80fd5b5061019e6102d9366004611282565b610940565b3480156102e9575f80fd5b5061019e6102f8366004611377565b610a86565b348015610308575f80fd5b5061019e610317366004611180565b610afd565b348015610327575f80fd5b506101527f189ab7a9244df0848122154315af71fe140f3db0fe014031783b0946b8c9d2e381565b5f6001600160e01b03198216637965db0b60e01b148061037f57506301ffc9a760e01b6001600160e01b03198316145b92915050565b5f9081525f80516020611570833981519152602052604090206001015490565b5f805160206115308339815191526103bc81610b19565b6040518060c001604052808760038111156103d9576103d961129b565b81526020018660038111156103f0576103f061129b565b81524260208083019190915260408083018890526001600160a01b038b165f9081528083528190206003015460ff16151560608401528051601f87018390048302810183019091528581526080909201919086908690819084018382808284375f9201829052509390945250506001600160a01b038a1681526020819052604090208251815491925090829060ff191660018360038111156104945761049461129b565b021790555060208201518154829061ff0019166101008360038111156104bc576104bc61129b565b02179055506040820151600182015560608201516002820155608082015160038201805460ff191691151591909117905560a082015160048201906105019082611433565b50905050866001600160a01b03167f1a51d1faa3dd064a7ae66a9638a6f874dbd1f8ff6e9a4601fde1b712aa40b934878742604051610542939291906114ee565b60405180910390a250505050505050565b61055c82610385565b61056581610b19565b61056f8383610b26565b50505050565b6001600160a01b038116331461059e5760405163334bd91960e11b815260040160405180910390fd5b6105a88282610bce565b505050565b6105b5610c47565b6105be82610ced565b6105c88282610d17565b5050565b6106036040805160c08101909152805f81526020015f81526020015f81526020015f81526020015f15158152602001606081525090565b6001600160a01b0382165f9081526020819052604090819020815160c081019092528054829060ff16600381111561063d5761063d61129b565b600381111561064e5761064e61129b565b81528154602090910190610100900460ff1660038111156106715761067161129b565b60038111156106825761068261129b565b81526001820154602082015260028201546040820152600382015460ff16151560608201526004820180546080909201916106bc906113b0565b80601f01602080910402602001604051908101604052809291908181526020018280546106e8906113b0565b80156107335780601f1061070a57610100808354040283529160200191610733565b820191905f5260205f20905b81548152906001019060200180831161071657829003601f168201915b5050505050815250509050919050565b5f61074c610dd8565b505f8051602061155083398151915290565b5f9182525f80516020611570833981519152602090815260408084206001600160a01b0393909316845291905290205460ff1690565b6001600160a01b0381165f90815260208190526040808220815160c08101909252805483929190829060ff1660038111156107d1576107d161129b565b60038111156107e2576107e261129b565b81528154602090910190610100900460ff1660038111156108055761080561129b565b60038111156108165761081661129b565b81526001820154602082015260028201546040820152600382015460ff1615156060820152600482018054608090920191610850906113b0565b80601f016020809104026020016040519081016040528092919081815260200182805461087c906113b0565b80156108c75780601f1061089e576101008083540402835291602001916108c7565b820191905f5260205f20905b8154815290600101906020018083116108aa57829003601f168201915b5050505050815250509050600160038111156108e5576108e561129b565b815160038111156108f8576108f861129b565b1480156109085750428160600151115b801561092a57506003816020015160038111156109275761092761129b565b14155b801561093957505f8160400151115b9392505050565b5f610949610e21565b805490915060ff600160401b820416159067ffffffffffffffff165f811580156109705750825b90505f8267ffffffffffffffff16600114801561098c5750303b155b90508115801561099a575080155b156109b85760405163f92ee8a960e01b815260040160405180910390fd5b845467ffffffffffffffff1916600117855583156109e257845460ff60401b1916600160401b1785555b6109ea610e49565b6109f45f87610b26565b50610a0c5f8051602061153083398151915287610b26565b50610a377f189ab7a9244df0848122154315af71fe140f3db0fe014031783b0946b8c9d2e387610b26565b508315610a7e57845460ff60401b19168555604051600181527fc7f505b2f371ae2175ee4913f4499e1f2633a7b5936321eed1cdaeb6115181d29060200160405180910390a15b505050505050565b5f80516020611530833981519152610a9d81610b19565b6001600160a01b0383165f8181526020818152604091829020600301805460ff191686151590811790915591519182527f2454f0939ec7722c69f46c9eae77a5be724ee8d3f7ce94bef57ff68f56b66593910160405180910390a2505050565b610b0682610385565b610b0f81610b19565b61056f8383610bce565b610b238133610e51565b50565b5f5f80516020611570833981519152610b3f848461075e565b610bbe575f848152602082815260408083206001600160a01b03871684529091529020805460ff19166001179055610b743390565b6001600160a01b0316836001600160a01b0316857f2f8788117e7eff1d82e926ec794901d17c78024a50270940304540a733656f0d60405160405180910390a4600191505061037f565b5f91505061037f565b5092915050565b5f5f80516020611570833981519152610be7848461075e565b15610bbe575f848152602082815260408083206001600160a01b0387168085529252808320805460ff1916905551339287917ff6391f5c32d9c69d2a47ea670b442974b53935d1edc7fd64eb21e047a839171b9190a4600191505061037f565b306001600160a01b037f0000000000000000000000000000000000000000000000000000000000000000161480610ccd57507f00000000000000000000000000000000000000000000000000000000000000006001600160a01b0316610cc15f80516020611550833981519152546001600160a01b031690565b6001600160a01b031614155b15610ceb5760405163703e46dd60e11b815260040160405180910390fd5b565b7f189ab7a9244df0848122154315af71fe140f3db0fe014031783b0946b8c9d2e36105c881610b19565b816001600160a01b03166352d1902d6040518163ffffffff1660e01b8152600401602060405180830381865afa925050508015610d71575060408051601f3d908101601f19168201909252610d6e91810190611518565b60015b610d9e57604051634c9c8ce360e01b81526001600160a01b03831660048201526024015b60405180910390fd5b5f805160206115508339815191528114610dce57604051632a87526960e21b815260048101829052602401610d95565b6105a88383610e8a565b306001600160a01b037f00000000000000000000000000000000000000000000000000000000000000001614610ceb5760405163703e46dd60e11b815260040160405180910390fd5b5f807ff0c57e16840df040f15088dc2f81fe391c3923bec73e23a9662efc9c229c6a0061037f565b610ceb610edf565b610e5b828261075e565b6105c85760405163e2517d3f60e01b81526001600160a01b038216600482015260248101839052604401610d95565b610e9382610f04565b6040516001600160a01b038316907fbc7cd75a20ee27fd9adebab32041f755214dbc6bffa90cc0225b39da2e5c2d3b905f90a2805115610ed7576105a88282610f67565b6105c8611000565b610ee761101f565b610ceb57604051631afcd79f60e31b815260040160405180910390fd5b806001600160a01b03163b5f03610f3957604051634c9c8ce360e01b81526001600160a01b0382166004820152602401610d95565b5f8051602061155083398151915280546001600160a01b0319166001600160a01b0392909216919091179055565b60605f610f748484611038565b9050808015610f9557505f3d1180610f9557505f846001600160a01b03163b115b15610faa57610fa261104b565b91505061037f565b8015610fd457604051639996b31560e01b81526001600160a01b0385166004820152602401610d95565b3d15610fe757610fe2611064565b610bc7565b60405163d6bda27560e01b815260040160405180910390fd5b3415610ceb5760405163b398979f60e01b815260040160405180910390fd5b5f611028610e21565b54600160401b900460ff16919050565b5f805f835160208501865af49392505050565b6040513d81523d5f602083013e3d602001810160405290565b6040513d5f823e3d81fd5b5f6020828403121561107f575f80fd5b81356001600160e01b031981168114610939575f80fd5b5f602082840312156110a6575f80fd5b5035919050565b80356001600160a01b03811681146110c3575f80fd5b919050565b60048110610b23575f80fd5b5f805f805f8060a087890312156110e9575f80fd5b6110f2876110ad565b95506020870135611102816110c8565b94506040870135611112816110c8565b935060608701359250608087013567ffffffffffffffff811115611134575f80fd5b8701601f81018913611144575f80fd5b803567ffffffffffffffff81111561115a575f80fd5b89602082840101111561116b575f80fd5b60208201935080925050509295509295509295565b5f8060408385031215611191575f80fd5b823591506111a1602084016110ad565b90509250929050565b634e487b7160e01b5f52604160045260245ffd5b5f80604083850312156111cf575f80fd5b6111d8836110ad565b9150602083013567ffffffffffffffff8111156111f3575f80fd5b8301601f81018513611203575f80fd5b803567ffffffffffffffff81111561121d5761121d6111aa565b604051601f8201601f19908116603f0116810167ffffffffffffffff8111828210171561124c5761124c6111aa565b604052818152828201602001871015611263575f80fd5b816020840160208301375f602083830101528093505050509250929050565b5f60208284031215611292575f80fd5b610939826110ad565b634e487b7160e01b5f52602160045260245ffd5b60048110610b2357634e487b7160e01b5f52602160045260245ffd5b5f81518084528060208401602086015e5f602082860101526020601f19601f83011685010191505092915050565b602081525f8251611309816112af565b80602084015250602083015161131e816112af565b8060408401525060408301516060830152606083015160808301526080830151151560a083015260a083015160c08084015261135d60e08401826112cb565b949350505050565b602081525f61093960208301846112cb565b5f8060408385031215611388575f80fd5b611391836110ad565b9150602083013580151581146113a5575f80fd5b809150509250929050565b600181811c908216806113c457607f821691505b6020821081036113e257634e487b7160e01b5f52602260045260245ffd5b50919050565b601f8211156105a857805f5260205f20601f840160051c8101602085101561140d5750805b601f840160051c820191505b8181101561142c575f8155600101611419565b5050505050565b815167ffffffffffffffff81111561144d5761144d6111aa565b6114618161145b84546113b0565b846113e8565b6020601f821160018114611493575f831561147c5750848201515b5f19600385901b1c1916600184901b17845561142c565b5f84815260208120601f198516915b828110156114c257878501518255602094850194600190920191016114a2565b50848210156114df57868401515f19600387901b60f8161c191681555b50505050600190811b01905550565b606081016114fb856112af565b848252611507846112af565b602082019390935260400152919050565b5f60208284031215611528575f80fd5b505191905056fe9792fdc19ab98adfa72ab2fa98d342618c661e01c406979c105b31eda87f5e6f360894a13ba1a3210667c828492db98dca3e2076cc3735a920a3ca505d382bbc02dd7bc7dec4dceedda775e58dd541e08a116c6c53815c0bd028192f7b626800a2646970667358221220d214bcf94e7e3fc6cdb92fa4e906625626b82c01cdc62a892bff129a306b257e64736f6c634300081a0033","linkReferences":{}},"methodIdentifiers":{"DEFAULT_ADMIN_ROLE()":"a217fddf","ORACLE_UPDATER_ROLE()":"1732d330","UPGRADER_ROLE()":"f72c0d8b","UPGRADE_INTERFACE_VERSION()":"ad3cb1cc","getComplianceRecord(address)":"513a8211","getRoleAdmin(bytes32)":"248a9ca3","grantRole(bytes32,address)":"2f2ff15d","hasRole(bytes32,address)":"91d14854","initialize(address)":"c4d66de8","isCompliant(address)":"a200e5d0","proxiableUUID()":"52d1902d","renounceRole(bytes32,address)":"36568abe","revokeRole(bytes32,address)":"d547741f","supportsInterface(bytes4)":"01ffc9a7","updateCompliance(address,uint8,uint8,uint256,string)":"2c4e13ef","updateTravelRuleStatus(address,bool)":"c997f733","upgradeToAndCall(address,bytes)":"4f1ef286"},"id":0}